:020000040800F2
:10000000205A01206102000821780008695B00087D
:1000100091770008590C0008B5990008000000000D
:10002000000000000000000000000000A101000826
:100030007D0E000800000000FD0100087592000818
:100040007B0200087B0200087B020008A97E0008F2
:100050007B0200087B0200087B0200087B0200088C
:100060007B020008F11400087B0200087B020008F4
:100070007B0200087B0200087B0200087B0200086C
:100080007B0200087B020008DD0900087B020008F3
:100090007B0200087B0200087B0200087B0200084C
:1000A0007B0200085D9300087B0200087B020008C9
:1000B0007B0200087B0200087B0200087B0200082C
:1000C0007B0200087B0200087B0200087B0200081C
:1000D000BD90000895990008A59900087B020008CA
:1000E000D51400087B0200087B0200087B02000890
:1000F0007B0200087B0200087B0200087B020008EC
:100100007B0200087B0200087B0200087B020008DB
:100110007B0200087B0200087B0200087B020008CB
:100120007B0200087B0200087B0200087B020008BB
:100130007B0200088D0F00087B0200087B0200088C
:100140007B0200087B0200087B0200087B0200089B
:100150007B0200087B0200087B0200087B0200088B
:100160007B0200087B0200087B0200087B0200087B
:100170007B0200087B0200087B02000800000000F0
:100180007B0200087B020008DFF810D000F0E8FBDB
:100190000048004745FA0008AFF30080205A0120CC
:1001A0002C4B19680868B0E8F04F80F30988BFF35A
:1001B0006F8F4FF0000080F311887047000000003F
:1001C00008480068006880F308884FF0000080F35A
:1001D000148862B661B6BFF34F8FBFF36F8F00DF35
:1001E00000BF00BF08ED00E0DFF80C00016841F43B
:1001F00070010160704700BF88ED00E0EFF30980F7
:10020000BFF36F8F134B1A681EF0100F08BF20ED5D
:10021000108A20E9F04F106009B44FF0A00080F37D
:100220001188BFF34F8FBFF36F8F1BF011FE4FF09C
:10023000000080F3118809BC19680868B0E8F04F25
:100240001EF0100F08BFB0EC108A80F30988BFF3CE
:100250006F8F7047A0000020EFF30580704700000B
:100260000648804706480047FEE7FEE7FEE7FEE750
:10027000FEE7FEE7FEE7FEE7FEE7FEE7499300083C
:10028000890100082DE9F05F0546002092469B4653
:1002900088460646814640241BE02846414647469C
:1002A000224600F077FA53465A46C01A914110D3BD
:1002B00011461846224600F05EFA2D1A67EB010837
:1002C0004F4622460120002100F055FA17EB0009A5
:1002D0004E41201EA4F10104DFDC484631462A4687
:1002E0004346BDE8F09F00000649074A08685043AE
:1002F00043F2390210440860400870470149086021
:1003000070470000200300206D4EC64110B5431A0F
:10031000934209D28318881803E010F8011D03F8EE
:10032000011D521EF9D210BD40EA01039B0703D004
:1003300009E008C9121F08C0042AFAD203E011F824
:10034000013B00F8013B521EF9D210BDD2B201E0D0
:1003500000F8012B491EFBD270470022F6E710B5CA
:1003600013460A4604461946FFF7F0FF204610BD23
:1003700010B5044604E00B7800F8013B03B1491CBA
:10038000521EF8D2204610BD421C10F8011B002955
:10039000FBD1801A704730B504460020034600E0C8
:1003A0005B1C934203D2E05CCD5C401BF8D030BDB7
:1003B000034611F8012B00F8012B002AF9D1184649
:1003C00070472DE9FE4F804681EA0300C00F0C46BE
:1003D000009021F0004123F00045B8EB0200A94154
:1003E00005D24046214690461C460B46024623F065
:1003F0000040104347D0270DC7F30A00C3F30A514A
:100400000290401A019040286BDAC3F3130040F4C5
:10041000801B0098924620B10023D2EB030A63EBC5
:100420000B0B01985946C0F14002504600F0A3F969
:1004300006460D4650465946019A00F0BBF910EBAE
:1004400008006141002487EA115284EAE7731A43E5
:1004500040D0009A62B3019A012A4FEA075215DC94
:10046000001B61EB02014FF0004202EA0752CDE9A6
:100470000042001C41F5801132462B4600F0F2F993
:1004800003B0BDE8F08F40462146F9E7001B61EB61
:100490000201001C41F5801300185B412018A2F5F1
:1004A000001747EB030140EAD570B6196D4111E022
:1004B0006D084FEA360645EAC0754FEA0752001B41
:1004C00061EB0201001C41F5801149084FEA300040
:1004D0000019514132462B4603B0BDE8F04F00F001
:1004E000B2B90098012240000023D0EB020263EB76
:1004F000E073009821464FEAE074B8EB000061EB2E
:100500000401E9E783F000435BE781F0004158E72D
:100510002DE9FE4F81EA030404F0004421F000417C
:1005200000944FF0000B23F0004350EA01045ED02A
:1005300052EA03045BD0C3F30A54C1F30A552C44B6
:10054000A4F2F3340194A0FB0254C1F3130141F46B
:100550008011C3F3130343F4801301FB024400FB37
:10056000034E840A970A44EA815447EA8357A4FB5E
:10057000076802958D0A05FB07854FEA932C04FB5B
:100580000C542705029D4FEA065847EA1637B5EB8B
:1005900008056EEB070C870E920E47EA811742EAB8
:1005A0008312A7FB0201B6EB0B0164EB00042B0DD9
:1005B00043EA0C335E1844EB1C50DA465146E7FB25
:1005C0000201C5F313044FEA0B3343EA14534FEA15
:1005D0000432019C43EA0603A4F10C040294009C3B
:1005E000CDE900B400F03EF903B0BDE8F08F002083
:1005F0000146F9E72DE9F04D81EA030404F0004BD0
:1006000021F0004514464FF0000A23F0004150EA63
:10061000050220D054EA01021DD0C5F30A57024654
:10062000C5F31303C1F31300C1F30A5640F4801558
:1006300043F48013A7EB0608101BD64608F2FD38DA
:1006400073EB050002D308F1010801E092185B4149
:10065000B8F1000F03DA00200146BDE8F08D00205C
:100660004FF48011064684460EE0171B73EB050716
:1006700005D3121B63EB050306434CEA010C490842
:100680004FEA300092185B4150EA0107EDD152EA7F
:10069000030012D082EA040083EA0501084305D072
:1006A000101BAB4106D20122002306E000224FF0CE
:1006B000004302E06FF0010253101AEB06004CEB0E
:1006C000085110EB0A0041EB0B01BDE8F04D00F0C2
:1006D000BAB80EB540F2334102910021CDE90011C4
:1006E0000A460B4600F0BEF803B000BD00F0004221
:1006F00030F000400AD0C10D01F56071C0F3160062
:1007000042EA0151C20840071143704700200146E8
:10071000704701F0004330B421F0004150EA01027B
:1007200006D00A0DA2F56072C1F31301002A02DCA3
:1007300030BC00207047440F44EAC104C100E018F7
:1007400030BC00EBC25000F047B830B50B46014654
:1007500000202022012409E021FA02F59D4205D360
:1007600003FA02F5491B04FA02F52844151EA2F10A
:100770000102F1DC30BD202A04DB203A00FA02F14C
:10078000002070479140C2F1200320FA03F319437F
:1007900090407047202A04DB203A21FA02F0002121
:1007A000704721FA02F3D040C2F120029140084381
:1007B00019467047202A06DBCB17203A41FA02F08F
:1007C00043EAE07306E041FA02F3D040C2F12002AE
:1007D00091400843194670470029A8BF7047401C44
:1007E000490008BF20F00100704710B4B0FA80FC47
:1007F00000FA0CF050EA010404BF10BC704749B184
:10080000CCF1200421FA04F411FA0CF118BF0121F3
:1008100021430843A3EB0C01CB1D4FEA00614FEAD3
:10082000102042BF002010BC704700EBC3501044A2
:100830000029A4BF10BC7047401C490008BF20F02D
:10084000010010BC704710B5141E73F1000408DAE3
:10085000401C41F1000192185B411A4301D120F084
:10086000010010BD2DE9F04D92469B4611B1B1FA41
:1008700081F202E0B0FA80F220329046FFF77BFF6F
:1008800004460F4640EA0A0041EA0B0153465A4625
:10089000084313D0114653EA010019D0C8F14002B1
:1008A0005046FFF777FF05460E46504659464246EA
:1008B000FFF761FF084305D0012004E020463946D8
:1008C000BDE8F08D0020054346EAE0762C4337432F
:1008D0000A986305E40AA0EB08000022FD0A44EA36
:1008E00047540A3002D500200146E9E701051019F6
:1008F0006941DDE9084500196941BDE8F04DA2E70D
:10090000C1F30A52C1F3130140F2FF3341F48011E5
:100910009A4202DA00200146704740F233439A427D
:10092000A2F2334202DC5242FFF734BFFFF723BF8B
:1009300030B5041E71F1000404DB4FF00044404266
:1009400064EB0101141E73F1000405DB1C464FF03B
:100950000043524263EB0403994208BF904230BD0A
:10096000064C074D06E0E06840F0010394E80700FC
:1009700098471034AC42F6D3FFF70AFCF4C90208DA
:1009800014CA020870B58C1810F8015B15F0070343
:1009900001D110F8013B2A1106D110F8012B03E018
:1009A00010F8016B01F8016B5B1EF9D12B0705D420
:1009B0000023521E0DD401F8013BFAE710F8013B69
:1009C000CB1A921C03E013F8015B01F8015B521E85
:1009D000F9D5A142D8D3002070BD000010B502485F
:1009E00000F0B9FE10BD0000480B002055494A68D0
:1009F00022F440324A604A6843681A434A600268F7
:100A0000526822F4807203685A600268536802696F
:100A100043EA022203685A600268526822F0407278
:100A200003685A600268526883681A4303685A6010
:100A30000268926822F4006203689A600268926811
:100A4000C3681A4303689A603F4B826A9A4218D07F
:100A50000268926822F0706203689A600268926885
:100A6000836A1A4303689A600268926822F04052CF
:100A700003689A6002689268C36A1A4303689A60BE
:100A80000BE00268926822F0706203689A60026864
:100A9000926822F0405203689A600268926822F0DD
:100AA000020203689A6002689368027E43EA420287
:100AB00003689A602022125CA2B10268526842F474
:100AC000006203685A600268526822F46042036858
:100AD0005A6002685368426A521E43EA423203680F
:100AE0005A6005E00268526822F4006203685A60A6
:100AF0000268D26A22F470020368DA620268D36A7A
:100B0000828B521E43EA02520368DA6202689268DC
:100B100022F4007203689A600268936890F83020AB
:100B200043EA422203689A600268926822F4806273
:100B300003689A6002689368426943EA8222036804
:100B40009A607047002301400100000F06F0F8F999
:100B500000BF064800F02EFF044800F0F8FD0449ED
:100B600088814FF4FA7010F081F9F2E7480B002009
:100B7000B60200200120704710B504462146024805
:100B800003F0B6FD10BD0000900B002010B5044826
:100B900003F0C1FD042801D0012010BD0020FCE7B6
:100BA000900B002010B5002400F014F8012801D0AB
:100BB000012010BD064803F0C0FD044634B94FF4CF
:100BC0000061034803F04AFC00B101242046F0E72D
:100BD000900B002008B501200090FFF7CBFF08B96B
:100BE000002000909DF8000008BD00002DE9F041B4
:100BF00004460D461646002733462A462146044839
:100C000003F076FE00B101273846BDE8F081000010
:100C1000900B002008B50120009000231A46694679
:100C20000248006810F0C6FA08BD00001403002056
:100C30002DE9F04104460D461646002733462A4664
:100C40002146044803F002FF00B101273846BDE801
:100C5000F0810000900B002000BFFEE730B5046873
:100C6000246824F4802405682C6004686360846828
:100C7000402C04D10468A2600468E16003E00468C9
:100C8000A1600468E26030BD38B5044600200090E1
:100C90006A460121636920689847002802DA6FF0EC
:100CA000040038BD6A46012163692068984700281E
:100CB00002DA6FF00400F4E7009800F0040008B9CD
:100CC0000120EEE76A460021636920689847002802
:100CD00002DA6FF00400E4E7009800F48050B0F509
:100CE000805F1FD0009800F40050B0F5005F07D17E
:100CF000009800F48070B0F5807F01D10220D0E729
:100D0000009800F40050B0F5005F01D10320C8E75F
:100D1000009800F48070B0F5807F01D10420C0E716
:100D20000520BEE76A4610216369206898470028BD
:100D300002DA6FF00400B4E7009800F0100008B980
:100D40000620AEE7009800F00600042801D102203A
:100D5000A7E7009800F0060008B90320A1E7009873
:100D600000F00600062801D104209AE7052098E744
:100D7000F8B5044600270020009000250026606892
:100D8000002855D1A06808B1A068804720202060C5
:100D9000002513E06A461921284663699847002810
:100DA00002DA6FF0040608E0009800F01F00A84285
:100DB00002D12560002603E000BF6D1C1F2DE9D97C
:100DC00000BF20681F2801D96FF0020656BB4FF400
:100DD00000420021236920689847002826DB6A46E4
:100DE000002163692068984700281CDBA0698047C0
:100DF000074612E0A0698047C01BB0F5FA7F09D80A
:100E00006A460021636920689847002805DA6FF078
:100E1000040607E06FF0010604E0009800F40040CB
:100E20000028E7D104E06FF0040601E06FF003064C
:100E30005EB9A0698047074600BFA0698047C01B14
:100E4000B0F5FA6FF9D9012060603046F8BD02466E
:100E50002AB1C86818B1886808B1086910B94FF09C
:100E6000FF307047086890604B68D360CB6853616F
:100E70008B6813610B6993610020F2E7704710B52E
:100E80000146002226E002EB82040B6903EBC4005A
:100E90000023036043608360C360036243624FF0DA
:100EA000004303604FF48C434360436823F00043E6
:100EB000436001F1480343F82200032A07D202EB02
:100EC00082040B6903EBC4032833C36001E00B69A0
:100ED000C360521C042AD6D30024CC650C668C66F1
:100EE000CC668C650B6803F580530C69DC6010BD23
:100EF00010B50146002222E002EB8204CB6803EB2E
:100F0000C4000023036043608360C36001F11803E1
:100F100043F82200036843F480130360032A07D2D6
:100F200002EB8204CB6803EBC4032833C36001E007
:100F3000CB68C360036843F440030360521C042A77
:100F4000DAD300248C620B6803F58053CC681C61F3
:100F500010BD38B5044600200090206800F5805090
:100F6000806940F48011206800F58050816120681C
:100F700000F5805080690090012000F025FF009965
:100F8000206800F58050816138BD000010B502482E
:100F900000F0B6FF10BD0000FCA4002030B50346F1
:100FA0001479557944EA0520084C0C442064D4781F
:100FB0002406957844EA0544557844EA05241578D2
:100FC00044EA0500014C0C44606430BD00800240DE
:100FD00010B5A4B0044601208DF83C008DF83D000A
:100FE00000200D908DF84B0001208DF84A00002064
:100FF0008DF8480001208DF8300000208DF84C005D
:101000008DF83B0014908DF854001D908DF87800F9
:101010001F908DF882008DF880004FF48040109072
:10102000C010119000208DF881000BA9204600F01F
:1010300083F901208DF80C008DF80D008DF81D004E
:101040008DF80E00002005908DF81C008DF81E0014
:10105000089001208DF824008DF80400000402900F
:10106000800106904012049001208DF82500002098
:101070000A9000906946204600F0FEF824B010BDAA
:101080000020704710B501F01FFD10BD10B50248DB
:1010900001F038FA002010BDFCA4002070B5044611
:1010A0000D46164633462A462146044801F05CF9AF
:1010B00010B14FF0FF3070BD0020FCE7FCA4002011
:1010C00070B504460D46164633462A462146044866
:1010D00001F06FFB10B14FF0FF3070BD0020FCE756
:1010E000FCA400202DE9F04F80460C46164608F17E
:1010F00018031A69D3F810904FF0000C53F822101F
:10110000A568E246086800F00040B0F1004F04D046
:1011100003F1140050F8220010B10220BDE8F08F56
:101120000CF1010C2868886048686FF30C00D5F852
:1011300004B040EA0B004860207800F0010038B1AC
:10114000086820F44000D4F814B040EA0B000860AE
:10115000207800F0200038B1086820F04060D4F812
:1011600010B040EA0B000860207800F0040018B1CD
:10117000086840F080000860086840F0805008600F
:10118000BFF35F8F086840F00040086051E00868D6
:1011900020F00050086026B1086840F080400860E8
:1011A00003E0086820F08040086000BF521C042A59
:1011B00000D3121F00BF53F82210086820F080509F
:1011C0000860086800F00040B0F1004F04D003F15F
:1011D000140050F82200B8B14A4653F822100027F4
:1011E0000EE0BFF35F8F086820F00040086000BF8A
:1011F000521C042A00D3121F00BF53F822107F1C78
:101200006745EED3022089E70CF1010CAD68286830
:10121000886048686FF30C00D5F804B040EA0B0012
:1012200048600AF1010ABFF35F8F086840F0004090
:101230000860A8680028AAD126B1086840F080405C
:10124000086003E0086820F080400860086840F00B
:101250000050086003F11400D3F824B040F822B025
:101260001A6172B60AF10100D3F828B058449862A6
:1012700062B6002052E7000070B505460C462868AB
:1012800000F5805086692B480640207B08B9012074
:1012900000E000208006617B40EA4160617F09B97F
:1012A000012100E0002140EA0150A17B40EA4150C9
:1012B00061690843217F40EAC110A17F40EA8110A3
:1012C000216A084394F8241040EA81000643286804
:1012D00000F580508661286800F5805086690120FD
:1012E00000F072FD286800F5805086612179A068C1
:1012F00040EA4160A16908432169084394F8251038
:1013000040EAC110A16A40EA81002168084340F424
:101310000001286800F580500160286800F58050C1
:101320000668012000F050FD286800F58050066036
:1013300070BD0000233FDEF870B505460C462868F6
:1013400006683A480640207C08B9012000E00020E9
:10135000C005617C09B9012100E0002140EA81500B
:10136000A1680843E17F40EA014061690843A17F29
:1013700009B9012100E0002140EA4130217F40EA23
:101380000130A1690843217940EA812094F82010B6
:1013900009B9012100E0002140EA4120E17B40EA57
:1013A000C110616A084394F8281040EA011006430E
:1013B0002868066028680668012000F005FD286896
:1013C0000660286886694FF641700640A06C0004EC
:1013D00094F84C1009B9012100E0002140EAC11045
:1013E000216D084394F85510012900D100E0002137
:1013F00040EAC10094F85610012900D100E0002114
:1014000040EA810094F85410012900D100E0002145
:1014100040EA410006432868866128688669012001
:1014200000F0D2FC2868866170BD00000F8120FFAB
:101430002DE9F8430446002000904FF00109A56E05
:1014400004F1480050F82560E76E27E0306A58B98B
:10145000684600F0FBFF009810B94FF0000903E068
:10146000009830620098B060B9F1000F16D0A06DFE
:1014700010B91748706002E04FF48C40706030681B
:1014800040F00040306000BF6D1C042D00D32D1FC4
:1014900000BF04F1480050F825607F1E17B1B9F174
:1014A000000FD3D1E06EB8420FD0681C00F00308E3
:1014B000BFF35F8F08EB8801206900EBC101206852
:1014C00000F580508160A566E766BDE8F8830000FE
:1014D0000046008010B54FF4806001F0D5F94FF45C
:1014E000006001F0D1F94FF4805001F0CDF910BD4A
:1014F00010B5082001F0C8F910BD72B6704772B679
:1015000000BFFEE762B6704730B504460D460022C4
:101510002946204600F002F830BD0000F0B5034631
:10152000012500241148407A01281CDA00200F4EC2
:10153000767A0E4FB8553846467A001D40F8263068
:10154000001F467A083082553E46707A461C7E72ED
:10155000044604F1300008703A2048702F2088704B
:101560000020C87000252846F0BD0000F455012079
:101570007047000038B502460020009000BF92F886
:101580003C00012801D1022038BD012082F83C0036
:1015900000BF0868092816D91068C0680C780A3C92
:1015A00004EB44050724AC40A0431468E0600C78C9
:1015B0000A3C04EB44048868A0401468E4682043B3
:1015C0001468E06013E0106800690C7804EB4405CF
:1015D0000724AC40A043146820610C7804EB440459
:1015E0008868A04014682469204314682061486812
:1015F000072817D21068406B0C79641E04EB840531
:101600001F24AC40A04314686063088880B20C7942
:10161000641E04EB8404A0401468646B20431468C7
:10162000606331E048680D2817D21068006B0C79B0
:10163000E41F04EB84051F24AC40A043146820631E
:10164000088880B20C79E41F04EB8404A04014687D
:10165000246B20431468206316E01068C06A0C797C
:101660000D3C04EB84051F24AC40A0431468E062E9
:10167000088880B20C790D3C04EB8404A040146807
:10168000E46A20431468E062194B1A4C1068A042C7
:1016900006D10868122803D1586840F480005860C9
:1016A000144C1068A0421CD10868102802D00868A9
:1016B000112816D1586840F40000586008681028B6
:1016C0000FD10D4800680D4CB0FBF4F000EB80002A
:1016D0004000009002E00098401E00900098002812
:1016E000F9D100BF002082F83C0000BF00BF4BE7EB
:1016F00000230140002001409C00002040420F00D8
:1017000010B50446204600F022F80B490860084650
:1017100090ED000AB8EE400ADFED080A80EE201ACC
:101720009FED070A21EE000A064880ED000A0648F0
:1017300000F0E6F910BD00004800002000008045E0
:101740003333534044000020480B002070470146CB
:101750000868C06C70472DE9F0410446002500265A
:10176000206807682068D0F8048007F0020508F0B8
:10177000200695B38EB3206C00F0100018B9206CD1
:1017800040F4007020642068806800F04050E8B9A0
:10179000207ED8B92068C06A00F4700020B12068AB
:1017A000806800F4806088B92068406820F02000DC
:1017B00021684860206C20F480702064206C00F464
:1017C000805018B9206C40F0010020642046FFF7DB
:1017D00097FF6FF012002168086007F0040508F019
:1017E0008006E5B3DEB3206C00F0100018B9206C61
:1017F00040F4005020642068806800F4401038BB3A
:101800002068806B00F4401020B12068806800F4EC
:101810008060E8B92068406800F48060C0B9206842
:10182000806800F0405098B9207E88B920684068F0
:1018300020F0800021684860206C20F480502064F3
:10184000206C00F4807018B9206C40F00100206416
:101850002046FFF78DFE6FF00C002168086007F04E
:10186000010508F0400685B17EB12068006800F0EF
:10187000010050B1206C40F480302064204600F01C
:101880004FF86FF001002168086007F0200508F0AC
:1018900080667DB176B1606C40F0020060646FF0EC
:1018A0002000216808602046FFF750FF6FF02000FD
:1018B00021680860BDE8F08170B5044600250CB9C8
:1018C000012070BD1549A06A884200D000BF206C7D
:1018D00030B9204600F026F80020606484F83C000F
:1018E000206C00F0100088B9206C20F4885040F083
:1018F000020020642046FFF779F800206064206C25
:1019000020F0020040F00100206400E0012500BF4B
:10191000002084F83C0000BF2846D2E70100000FF9
:101920007047000010B586B00446142101A8FEF7E8
:1019300014FD1D492068884233D100BF002000906B
:101940001A48006840F4807018490860084600682A
:1019500000F48070009000BF00BF00BF0020009026
:1019600012481438006840F0020010491439086029
:101970000846006800F00200009000BF00BF012090
:101980000190032002900020039001A9084800F074
:1019900089FF00220521122001F0E6FD122001F04E
:1019A000CFFD06B010BD00000020014044380240C9
:1019B0000004024008B501460020009000BF91F8E5
:1019C0003C00012801D1022008BD012081F83C0023
:1019D00000BF0868806800F00100A0B9086880684E
:1019E00040F001000B6898603F4800683F4BB0FB37
:1019F000F3F000EB4000009002E00098401E0090E1
:101A000000980028F9D10868806800F001000028DB
:101A100060D0086C40F20163984340F48070086421
:101A20000868406800F4806028B1086C20F4005019
:101A300040F480500864086C00F48050B0F5805F7A
:101A400004D1486C20F00600486401E0002048649E
:101A500000BF002081F83C0000BF254A6FF0220043
:101A60000B681860506800F01F0018BB214B086815
:101A7000984213D0204B0868984204D1101D00688A
:101A800000F01F0050B11D4B086898422AD1184839
:101A9000001D006800F01F00102823D2086880682D
:101AA00000F04050F0B90868806840F080400B6852
:101AB000986017E00F4B0868984213D10868806857
:101AC00000F0405070B90868806840F080400B68B2
:101AD000986007E0086C40F010000864486C40F023
:101AE0000100486400206FE79C00002040420F0086
:101AF000002301400020014000210140002201405C
:101B000008B501460020009000BF91F83C00012874
:101B100001D1022008BD012081F83C0000BF086807
:101B2000806800F00100A0B90868806840F00100FA
:101B30000B68986042480068424BB0FBF3F000EB42
:101B40004000009002E00098401E0090009800289D
:101B5000F9D10868806800F00100002866D0086CA0
:101B600040F20163984340F480700864086840685C
:101B700000F4806028B1086C20F4005040F48050DC
:101B80000864086C00F48050B0F5805F04D1486CA4
:101B900020F00600486401E00020486400BF0020F7
:101BA00081F83C0000BF284A6FF022000B681860E3
:101BB00008684068254B18430B685860506800F06F
:101BC0001F0018BB224B0868984213D0214B0868AD
:101BD000984204D1101D006800F01F0050B11E4B48
:101BE000086898422AD11848001D006800F01F00BC
:101BF000102823D20868806800F04050F0B90868C7
:101C0000806840F080400B68986017E0104B0868CF
:101C1000984213D10868806800F0405070B9086895
:101C2000806840F080400B68986007E0086C40F0E6
:101C300010000864486C40F001004864002069E727
:101C40009C00002040420F000023014020000004BF
:101C500000200140002101400022014070B50446EF
:101C6000A56D00F031FF064694F83500022808D033
:101C70008020606500BF002084F8340000BF012090
:101C800070BD2068006820F0160021680860206898
:101C9000406920F0800021684861206C08B9A06C80
:101CA00028B12068006820F00800216808602068DA
:101CB000006820F001002168086010E000F004FFD7
:101CC000801B05280BD920206065032084F835008F
:101CD00000BF002084F8340000BF0320D0E7206854
:101CE000006800F001000028E8D194F85C103F2063
:101CF0008840A860012084F8350000BF002084F8E7
:101D0000340000BF00BFBBE7014691F83500022850
:101D100003D08020486501207047052081F83500F8
:101D20000868006820F001000A6810600020F3E7EE
:101D30000146486D70472DE9F04704460D461646AA
:101D40001F464FF00008D4F8589000BF94F83400B4
:101D5000012802D10220BDE8F087012084F8340078
:101D600000BF94F83500012825D1022084F8350001
:101D7000002060653B46324629462046FEF76EFF4E
:101D800094F85C103F208840C9F80800206800687B
:101D900040F0160021680860206C28B120680068B7
:101DA00040F00800216808602068006840F00100E9
:101DB0002168086006E000BF002084F8340000BFFE
:101DC0004FF002084046C6E770B5044600F07CFEBE
:101DD00006462546681C10B104480078054400BF3B
:101DE00000F072FE801BA842FAD370BD980000205C
:101DF00010B50446204600F00BF800F08000802863
:101E000003D1024800680FF07BFB10BD5800002092
:101E10000146D1F88C007047024609B9012070478D
:101E200010680068C0F3001081F82800106800688E
:101E300000F06000486210680068C0F3402080F045
:101E4000010081F8200010680068C0F30040C877E6
:101E500010680068C0F3403080F001008877106897
:101E60000068C0F3003008771068006800F4006074
:101E700088611068006800F480404861106800685C
:101E8000C0F3805080F00100487410680068C0F30F
:101E9000C05080F00100087410680068C0F3C010E2
:101EA000C8731068006800F46020886010680068DB
:101EB000C0F38020087110688069C0F3400081F889
:101EC000540010688069C0F3C01080F0010081F8F0
:101ED0004C001068806900F0300008651068806967
:101EE000000C886410688069C0F3800081F8560097
:101EF00010688069C0F3C00081F8550000208EE7AB
:101F000010B50446206800F58050406900F040009C
:101F100040280FD1206800F58050C06900F04000D3
:101F2000402807D14249206800F580504161204691
:101F300000F0B0FA206800F58050406900F0010020
:101F400078B1206800F58050C06900F0010040B110
:101F50004FF00111206800F580504161204600F0EB
:101F600017FC206800F58050406900F40040B0F58F
:101F7000004F3DD1206800F58050C06900F400405A
:101F8000B0F5004F34D1D4F8880040F00800C4F810
:101F90008800206800F58050406900F40050B0F5DA
:101FA000005F15D1206800F5805040692149084044
:101FB000C4F88C00206800F58050C06920F4C0315E
:101FC000206800F58050C161E020C4F884000CE076
:101FD000206800F58050406948F280610840C4F8EC
:101FE0008C00206800F5805041612046FFF700FF1B
:101FF0002068806B00F0080008280BD12068C06AB8
:1020000000F06000C4F89400204600F02BF9002096
:10201000C4F894000848006800F4002030B14FF480
:10202000002005490860204600F0C2FB10BD0000FA
:102030004000010000207E00143C014038B50446F9
:102040000CB9012038BDD4F8840028B92320C4F885
:102050008400204600F05CF800BF002000902A4871
:10206000006840F48040284908600846006800F491
:102070008040009000BF00BF2448006820F40000AA
:102080002249086008460068A16808431F490860A3
:1020900008460068206800F58050006840F00101A3
:1020A000206800F58050016000F00EFD05460DE04F
:1020B00000F00AFD401BB0F5FA7F07D90420C4F8F0
:1020C0008800E020C4F884000120BBE7206800F508
:1020D0008050006800F001000028E9D12046FEF79A
:1020E00077FF2046FEF704FF2046FEF7C8FE0021DA
:1020F00020466268FEF752FF0020C4F888001020D6
:10210000C4F8840000209DE74438024004380140B0
:1021100010B586B00446142101A8FEF71EF94C49FB
:10212000206888427ED100BF00BF0020009049484F
:10213000006840F00070474908600846006800F0F9
:102140000070009000BF00BF00BF00200090084654
:10215000006840F0806008600846006800F0806019
:10216000009000BF00BF00BF00200090084600683C
:1021700040F0006008600846006800F000600090D1
:1021800000BF00BF00BF00BF0020009008460068ED
:1021900040F0040008600846006800F00400009069
:1021A00000BF00BF00BF002000900846006840F05C
:1021B000010008600846006800F00100009000BFC0
:1021C00000BF00BF002000900846006840F00200F9
:1021D00008600846006800F00200009000BF00BFE1
:1021E00032200190022002900020039003200490EE
:1021F0000B20059001A9184800F054FB862001909F
:102200000220029000200390032004900B200590F0
:1022100001A9124800F046FB4FF4605001900220E3
:10222000029000E011E000200390032004900B20B6
:10223000059001A90A4800F035FB00220A213D2043
:1022400001F092F93D2001F07BF906B010BD0000CD
:102250000080024030380240000802400000024086
:102260000004024070472DE9F05F04460F464FF02E
:102270000008C34647B9D4F8880040F00100C4F80C
:1022800088000120BDE8F09FD4F88400232801D005
:102290000120F7E7E66D04F1480050F82650E06EA3
:1022A000C0F1040942E0286800F4807018B1E969BF
:1022B000A167A9696167286800F4007008B9E06F38
:1022C00040B3286800F4007010B1002121666166F7
:1022D000D4F814A0286800F4807040B12868C0F3D6
:1022E0000D40A0F1040A296821674FF0010BA8688E
:1022F00028621FFA8AF304F18001081F2A6A00F09D
:10230000D3F8206E401C2066606E00EB0A01616607
:102310000020286200BF761C042E00D3361F00BFA9
:1023200004F1480050F8265008F10108286800F030
:10233000004020B9C84502D2BBF1000FB3D0E06E17
:1023400000EB0801E166E06E10B12046FFF770F87F
:10235000E665BBF1010F05D1E06F38600021E16750
:1023600000208FE701208DE72DE9F04705460E4656
:10237000174698462868046904F01C044FF4784016
:1023800000EAC62004434FF4F86000EA87100443D3
:1023900024F0020444F001042868046100F094FB76
:1023A00081460BE000F090FBA0EB0900B0F5803F08
:1023B00002D30120BDE8F0872868046904F0010019
:1023C0000028EFD12868406980B2C8F800000020DA
:1023D000F0E72DE9F047064606F11804A76AE56A1A
:1023E0004FF001082AE04FF001097F1E04F11400AC
:1023F00050F8250020B9681C00F003054FF00009D3
:10240000B9F1000F1AD005EB8501F06850F83100E2
:1024100000F0004080B904F1140151F8250000F0EB
:10242000C1F9002104F1140040F82510681C00F0E7
:102430000305A762E56201E04FF0000817B1B8F1AB
:10244000000FD0D10020BDE8F08700007CB5044625
:102450000D480EF097F8054685B105F12000206083
:102460000A4828614FF4C06120682B464122CDE91B
:102470000001002108460FF089FB04E00120044917
:102480000870002020607CBD10920208052301081E
:102490005400002010B50446024800680FF030F8E0
:1024A00010BD000058000020F0B504460D4621463E
:1024B0002E460020A2F120000027076007814381FB
:1024C0000F680FB9086001E037683860306008684D
:1024D00003E007891F44078100680028F9D1F0BD97
:1024E00070B504460D460DB9012070BDD4F88400C6
:1024F000102805D129462046FEF71EFF0020F4E7EC
:102500000120F2E770B506463068056925F01C0524
:1025100001F03EFA04461348844205D3124884422F
:1025200002D245F008051AE00F48844205D30F484F
:10253000844202D245F00C0511E00C48844203D3DA
:102540000B48844200D20AE00948844205D3094876
:10255000844202D245F0040501E045F010053068E0
:10256000056170BD002D3101C00E16020087930376
:1025700000E1F50580D1F00870B50446D4F8840078
:1025800010285FD12320C4F884000121A1652068B0
:10259000C06B40F402702168C8632068D0F80C0159
:1025A000294908432168C1F80C012068D0F81001BE
:1025B00040F403102168C1F810010421E1662046AF
:1025C000FEF736FF2068006840F0080021680860C8
:1025D000206805680120FFF7F7FB20680560206888
:1025E000006840F004002168086020680568012048
:1025F000FFF7EAFB206805602046FEF7AAFC20688A
:1026000000F58050806940F40051206800F580504A
:102610008161206800F58050806940F002012068E7
:1026200000F580508161206800F58050C06907493D
:102630000843216801F58051C8612320C4F8840053
:10264000002070BD0120FCE760000200C1A0010075
:102650002DE9F0410446D4F88400232851D1C4F870
:102660008400206800F58050C0692749084021682F
:1026700001F58051C861206800F58050806920F420
:102680000051206800F580508161206800F580507D
:10269000806920F00201206800F580508161206887
:1026A000006820F0040021680860206807680120A5
:1026B000FFF78AFB206807602046FEF74AFC206887
:1026C000006820F008002168086020680768012081
:1026D000FFF77AFB20680760002508E004F1480056
:1026E00050F82560706840F0004070606D1C042D4B
:1026F000F4D30021A1651020C4F884000020BDE8B7
:10270000F0810120FBE700003E5FFEFF70B504464C
:102710000D463DB9D4F8880040F00100C4F88800A7
:10272000012070BDD4F8840023282FD1696BE163A8
:10273000012229462046FEF7D5FC38B1D4F888009E
:1027400040F00200C4F888000120EAE7BFF34F8F91
:1027500000BFA06A401CA062A06A042802D3A06A3D
:10276000001FA06200BF206800F58050406900F0A3
:10277000040048B10421206800F580504161002127
:10278000206800F5805041600020CAE70120C8E7BA
:1027900010B50446024800680EF0B2FE10BD0000FD
:1027A0005C00002010B5044620460FF0D7FC10BD99
:1027B00070472DE9F04705460E46174698462868AB
:1027C000046904F01C044FF4784000EAC620044376
:1027D0004FF4F86000EA8710044344F0020444F028
:1027E00001041FFA88F0296848612868046100F034
:1027F0006BF981460BE000F067F9A0EB0900B0F53A
:10280000803F02D30120BDE8F0872868046904F006
:1028100001000028EFD100BFF5E7000010B5044625
:10282000B4F5806F06D0B4F5006F13D0B4F5805FB7
:1028300022D120E011480078401C10490870084659
:102840000078052801D1002008700D4800681AF0B2
:102850000FFF11E00B48007810B107F09FFD01E079
:1028600007F0A8FD0748007808B9012000E0002023
:102870000449087000E000BF00BF10BD8C000020BC
:10288000180000200000002010B50446044800682D
:10289000204020B1024804602046FFF7BFFF10BD72
:1028A000143C0140F8B502460B46002500240020E8
:1028B0000021D6E0012606FA01F51E6806EA0504A5
:1028C000AC4274D11E7906F00306012E04D01E79A5
:1028D00006F00306022E13D190684F000326BE4077
:1028E000B0434F00DE68BE40304390605068012620
:1028F0008E40B0431E79C6F300168E4030435060C0
:102900001E7906F00306032E09D0D0684F00032677
:10291000BE40B0434F009E68BE403043D0601E7939
:1029200006F00306022E13D1CF0802F1200656F856
:1029300027004E07F70E0F26BE40B0434F07FF0E8D
:102940001E69BE403043CF0802F1200646F827003A
:1029500010684F000326BE40B0431E7906F0030600
:102960004F00BE40304310605E6806F44036002ED3
:1029700076D000BF002600963C4E366846F480466E
:102980003A4F3E603E46366806F48046009600BFE9
:1029900000BF374E8F0856F827008E07370F0F26D7
:1029A000BE40B043334EB24202D1002624E057E08D
:1029B000314EB24201D101261EE0304EB24201D169
:1029C000022619E02E4EB24201D1032614E02D4E0C
:1029D000B24201D104260FE02B4EB24201D10526AE
:1029E0000AE02A4EB24201D1062605E0284EB24244
:1029F00001D1072600E008268F073F0FBE40304375
:102A00001B4E8F0846F82700224E3068A0435E68B0
:102A100006F4801606B120431E4E3060361D306825
:102A2000A0435E6806F4001606B12043194E361D19
:102A30003060184E361F3068A0435E6806F40036DA
:102A400006B12043134E361F3060361F3068A04356
:102A50005E6806F4803606B120430E4E083E3060B4
:102A6000491C1029FFF426AFF8BD0000443802408D
:102A70000838014000000240000402400008024003
:102A8000000C0240001002400014024000180240F6
:102A9000001C0240083C0140024613690B400BB188
:102AA000012000E00020704710B5426921EA0203CE
:102AB00002EA010443EA0443836110BD0AB1816163
:102AC00001E00B0483617047014800687047000013
:102AD00090000020014691F83D00704770B5044613
:102AE0000CB9012070BD94F83D0028B9002084F88D
:102AF0003C00204600F0ECFB242084F83D002068D8
:102B0000006820F00100216808602068006840F437
:102B10000040216808602068006820F400402168B7
:102B2000086000F03BFF05465C496068884206D8B3
:102B30005B48854201D2012007E0002005E05948AA
:102B4000854201D2012000E00020012800D1C9E720
:102B50005548B5FBF0F62068406820F03F00304350
:102B6000216848604D496068884201D8701C07E0C0
:102B70004FF4967070434FF47A71B0FBF1F0401C43
:102B80002168096A21F03F0108432168086243492E
:102B90006068884214D8681E61684900B0FBF1F093
:102BA000401CC0F30B00042801D204203DE0681E45
:102BB00061684900B0FBF1F0401CC0F30B0034E049
:102BC000A06838B9681E616801EB4101B0FBF1F003
:102BD000401C0AE0681E616801EBC10202EB0111B2
:102BE000B0FBF1F0401C40F48040C0F30B0008B98A
:102BF00001201AE0A06848B9681E616801EB410134
:102C0000B0FBF1F0401CC0F30B000CE0681E6168E3
:102C100001EBC10202EB0111B0FBF1F0401CC0F36B
:102C20000B0040F4804040F400402168C9694CF634
:102C3000FF72914308432168C861D4E90701084342
:102C40002168096821F0C001084321680860D4E9BF
:102C5000031008432168896848F2FF329143084312
:102C600021688860D4E9050108432168C96821F01A
:102C7000FF0108432168C8602068006840F0010037
:102C80002168086000202064202084F83D00002096
:102C9000206384F83E0000BF24E70000A086010006
:102CA00080841E0000093D0040420F002DE9F84FCE
:102CB00004460F4690461E46FFF706FF05464FF0B6
:102CC000000994F83D0020287ED119230122634990
:102CD0002046009503F0B5F910B10220BDE8F88F49
:102CE00000BF94F83C00012801D10220F6E7012042
:102CF00084F83C0000BF2068006800F0010028B99B
:102D00002068006840F001002168086020680068C1
:102D100020F4006021680860242084F83D00002031
:102D200020644F48E06200BF2068006840F4807073
:102D300021680860334600224FF0011120460095BB
:102D400003F07FF958B12068006800F48070B0F596
:102D5000807F02D14FF4007020640320BEE707F0AB
:102D6000FE0021680861FFF7AFFE05462068406954
:102D7000C0F3400A20684069C0F3802B10E0FFF7E1
:102D8000A3FE401BB04200D816B9A02084F83D0035
:102D900020684069C0F3400A20684069C0F3802B76
:102DA00094F83D00A02805D0BAF1000F02D1BBF184
:102DB000000FE4D0202084F83D0020684069C0F373
:102DC000400028B3206800E045E0006840F400704F
:102DD0002168086000BF00200090206840690090D2
:102DE00020688069009000BF00BF192301221B49A1
:102DF0002046009503F025F908B101206EE7202058
:102E000084F83D0000BF002084F83C0000BF65E767
:102E10002068006840F40070216808606FF48060EA
:102E200021684861192301220C492046009503F0CE
:102E300008F908B1012051E709F10109C145FFF482
:102E400073AF202084F83D0000BF002084F83C00D0
:102E500000BF012042E7022040E70000020010000E
:102E60000000FFFF2DE9FC5F04460F46904699469F
:102E7000DDE90CAB0E9EFFF727FE054694F83D00FA
:102E8000202870D119230122B5492046009503F06E
:102E9000D8F810B10220BDE8FC9F00BF94F83C00B8
:102EA000012801D10220F6E7012084F83C0000BF90
:102EB0002068006800F0010028B92068006840F030
:102EC0000100216808602068006820F40060216823
:102ED0000860222084F83D00402084F83E00002055
:102EE0002064C4F824A0A4F82AB0608D20859D48F1
:102EF000E0624B46424639462046CDE9006502F085
:102F00004DFF08B10120C6E7208D88B900BF002021
:102F1000019020684069019020688069019000BF9D
:102F200000BF2068006840F400702168086040E03D
:102F3000208D012818D12068006820F48060216865
:102F4000086000BF0020019020684069019020685F
:102F50008069019000BF00BF2068006840F40070E5
:102F60002168086025E0F8E0208D022816D120684D
:102F7000006820F48060216808602068006840F4E0
:102F800000602168086000BF00200190206840694F
:102F9000019020688069019000BF0AE000BF002016
:102FA000019020684069019020688069019000BF0D
:102FB00000BFC3E0208D03287ED8208D012815D1C5
:102FC0002A463146204603F018F908B1012062E78D
:102FD00020680069616A0870606A401C6062208D28
:102FE000401E2085608D401E6085A7E0208D022850
:102FF0002AD1334600225C492046009503F021F88F
:1030000008B1012047E72068006840F4007021689B
:10301000086020680069616A0870606A401C60622C
:10302000208D401E2085608D401E608520680069CF
:10303000616A0870606A401C6062208D401E2085B5
:10304000608D401E608579E0334600224649204667
:10305000009502F0F6FF08B101201CE72068006827
:1030600020F480602168086020680069616A087047
:10307000606A401C6062208D401E2085608D401E6D
:1030800060853346002238492046009502F0D9FF7A
:1030900008B10120FFE62068006840F40070216854
:1030A000086020680069616A0870606A401C60629C
:1030B000208D401E208500E010E0608D401E608560
:1030C00020680069616A0870606A401C6062208D37
:1030D000401E2085608D401E60852FE02A463146C7
:1030E000204603F08AF808B10120D4E62068006980
:1030F000616A0870606A401C6062208D401E2085F5
:10310000608D401E608520684069C0F38000A8B1D2
:10311000208D032805D12068006820F48060216894
:10312000086020680069616A0870606A401C60621B
:10313000208D401E2085608D401E6085208D0028DA
:103140007FF438AF202084F83D00002084F83E0052
:1031500000BF84F83C0000BF9DE602209BE6000013
:10316000020010000000FFFF040001002DE9FC5FD9
:1031700004460F4690469946DDE90CAB0E9EFFF7DC
:10318000A3FC054694F83D0020287DD11923012297
:103190004D492046009502F054FF10B10220BDE8D1
:1031A000FC9F00BF94F83C00012801D10220F6E703
:1031B000012084F83C0000BF2068006800F0010096
:1031C00028B92068006840F0010021680860206884
:1031D000006820F4006021680860212084F83D0028
:1031E000402084F83E0000202064C4F824A0A4F805
:1031F0002AB0608D20853548E0624B46424639460C
:103200002046CDE9006502F079FE08B10120C6E74D
:1032100031E02A463146204603F034F850B1206CA4
:10322000042805D12068006840F400702168086017
:103230000120B4E7606A007821680861606A401C78
:103240006062208D401E2085608D401E6085206854
:103250004069C0F3800070B1208D60B1606A007871
:1032600021680861606A401C6062208D401E2085D4
:10327000608D401E6085208D0028CAD12A463146C7
:10328000204602F0ABFE00E01CE050B1206C0428A8
:1032900005D12068006840F40070216808600120B2
:1032A0007DE72068006840F40070216808602020F5
:1032B00084F83D00002084F83E0000BF84F83C0004
:1032C00000BF6CE702206AE7020010000000FFFF69
:1032D00010B586B0044600BF002000902948006861
:1032E00040F00200274908600846006800F002002C
:1032F000009000BF00BF00BF00200090084600689B
:1033000040F0020008600846006800F002000090EB
:1033100000BF00BF00BF002000901A4810300068B6
:1033200040F400101749103108600846006800F4A6
:103330000010009000BF00BF88150190122002907D
:1033400000200390022004900420059001A90E485B
:10335000FFF7A8FA4FF4007001900420059001A92E
:103360000948FFF79FFA07481038006840F400103A
:103370000449103908600846006820F4001008600D
:1033800006B010BD303802400004024070B504465B
:103390000CB9012070BD4CF6CC402168086045F2A4
:1033A000555021680860D4E9001048602168A06881
:1033B0008860FFF789FB05460BE0FFF785FB401BA4
:1033C000312806D92068C06800F0030008B1032046
:1033D000E0E72068C06800F003000028EDD14AF65D
:1033E000AA20216808600020D4E701464AF6AA20F6
:1033F0000A68106000207047034800680349097894
:10340000084401490860704790000020980000209F
:1034100010B50D48006840F400700B49086008467C
:10342000006840F4806008600846006840F48070DE
:103430000860032000F0D6F80F2000F007F800F035
:1034400055F8002010BD0000003C0240F0B587B0E8
:1034500004460026002700BF002000901E48006898
:1034600040F001001C4908600846006800F00100B7
:10347000009000BF00BF01A902A800F067FA00F0A9
:103480009DFA46001548B6FBF0F0471E1448154952
:10349000086040F2E7311348C160476000210161D4
:1034A0008160816101F036FE054695B90D4801F055
:1034B000E1FE05466DB9192000F042F8102C07D244
:1034C00000222146192000F04FF80748046000E070
:1034D0000125284607B0F0BD4438024040420F00A5
:1034E00000000140EC0900209400002008B500BF56
:1034F000002000901148006840F480400F490860A7
:103500000846006800F48040009000BF00BF00BF84
:1035100000200090081F006840F08050091F0860DC
:103520000846006800F08050009000BF00BF0022F5
:103530000F21901E00F018F808BD0000443802402A
:103540000146084600280DDB00BF00BF00F01F0346
:1035500001229A4043099B0003F1E023C3F80021B4
:1035600000BF00BF00BF70472DE9F05F80460D46E9
:103570001646002706F056FA074639462A463346CD
:1035800001F00700C0F1070ABAF1040F02D94FF0A9
:10359000040A01E0C0F1070AD14600F1040ABAF1B9
:1035A000070F02D24FF0000A01E0A0F1030AD4464F
:1035B0004FF0010A0AFA09FAAAF1010A0AEA020A14
:1035C0000AFA0CFA4FF0010B0BFA0CFBABF1010BF2
:1035D0000BEA030B4AEA0B042146404606F02AFA9E
:1035E000BDE8F09F00BF00F00702064B19684FF6D8
:1035F000FF031940044B0B4343EA0221014B1960BE
:1036000000BF70470CED00E00000FA0508B501208E
:103610000349086203480068009000BF08BD00002D
:1036200000000E4200700040F8B504460025002658
:10363000207800F0010020B9207800F00400042870
:103640002FD100205B498866FFF73EFA054606E069
:10365000FFF73AFA401B022801D90320F8BD56486B
:103660000068C0F3C0600028F2D160688101207A50
:1036700041EA007050498431086001204D49886654
:10368000FFF722FA054606E0FFF71EFA401B022864
:1036900001D90320E2E748480068C0F3C060002871
:1036A000F2D0207800F0020002287DD100BF002077
:1036B000009041484030006840F080503E49403121
:1036C00008600846006800F08050009000BF00BF0E
:1036D0003A48006840F4807038490860FFF7F4F910
:1036E000054606E0FFF7F0F9401B022801D9032048
:1036F000B4E73248006800F480700028F2D02E4809
:103700007030006800F440764EB3A08900F4407039
:10371000B04224D028487030006820F44076012060
:103720002749086000200860234870300660006860
:1037300000F0010098B1FFF7C7F9054608E0FFF770
:10374000C3F9401B41F28831884201D9032085E743
:10375000194870300068C0F340000028EFD000BF67
:10376000A08900F44070B0F5407F0CD112480830B9
:10377000006820F4F810134AE168114008430E492C
:103780000831086007E00C480830006820F4F810A1
:10379000094908310860084870300068A189C1F300
:1037A0000B010843044900E002E07031086000BFEB
:1037B000002053E7000047420038024000700040FC
:1037C000400E4742FFFCFF0F70B504460D460CB992
:1037D000012070BD5848006800F00700A84209D2D7
:1037E00055490D700846006800F00700A84201D056
:1037F0000120EEE7207800F0020002281DD1207899
:1038000000F00400042805D14C48006840F4E05062
:103810004A490860207800F00800082805D1474888
:10382000006840F46040454908604448006820F062
:10383000F000A168084341490860207800F00100C9
:10384000A8B36068012807D13C4808380068C0F375
:103850004040B8B90120BCE76068022802D0606827
:10386000032807D1354808380068C0F3406048B9DC
:103870000120AEE7314808380068C0F3400008B9BD
:103880000120A6E72D48006820F003006168084386
:103890002A490860FFF718F9064609E0FFF714F90E
:1038A000801B41F28831884202D9032091E707E06A
:1038B0002248006800F00C006168B0EB810FEDD188
:1038C0001D48006800F00700A84209D91A490D7088
:1038D0000846006800F00700A84201D0012078E700
:1038E000207800F00400042807D11448006820F470
:1038F000E050E168084311490860207800F00800B2
:10390000082808D10D48006820F46040216940EA89
:10391000C1000A49086000F061F808490968C1F36C
:103920000311074A515CC840064908600648006810
:10393000FFF78CFD00204CE7003C024008380240B5
:1039400010C602089C000020940000200F22026094
:103950000D4A126802F0030242600B4A126802F03C
:10396000F0028260084A126802F4E052C260064A1D
:10397000126802F46042D2080261044A126802F03E
:1039800007020A607047000008380240003C02400D
:1039900001480068704700009C00002000B5FFF758
:1039A000F7FF04490968C1F38221034A515CC8400A
:1039B00000BD00000838024020C6020800B5FFF72D
:1039C000E7FF04490968C1F34231034A515CC8402A
:1039D00000BD00000838024020C602082DE9F0476B
:1039E000002400250026A1462548006800F00C00B0
:1039F00020B1042805D008283AD105E0DFF88490EA
:103A000039E0DFF8849036E01D48001F006800F0C0
:103A10003F041B48001F006800F4800078B11A487A
:103A20001749091F0968C1F38811A0FB01700146FD
:103A3000224600233846FCF725FC05460EE01148D7
:103A40000F49091F0968C1F38811A0FB01700146E5
:103A5000224600233846FCF715FC05460848001F9F
:103A60000068C0F30140401C4600B5FBF6F902E0D7
:103A7000DFF8109000BF00BF4846BDE8F0870000A7
:103A8000083802400024F40040787D01F8B504466F
:103A90000CB90120F8BD207800F00100002874D096
:103AA000F948006800F00C0004280DD0F6480068C2
:103AB00000F00C00082813D1F348001F006800F440
:103AC0008000B0F5800F0BD1EF4808380068C0F3D4
:103AD0004040002859D06068002856D10120D9E71D
:103AE00000BF6068B0F5803F08D1E748083800683B
:103AF00040F48030E449083908601EE06068B0F5A1
:103B0000A02F0DD1E0480838006840F48020DE493D
:103B1000083908600846006840F4803008600CE00E
:103B2000D9480838006820F48030D749083908603F
:103B30000846006820F48020086000BF606890B1EB
:103B4000FEF7C2FF054606E0FEF7BEFF401B6428F5
:103B500001D903209EE7CC4808380068C0F34040F4
:103B60000028F1D011E0FEF7AFFF054606E0FEF7B2
:103B7000ABFF401B642801D903208BE7C2480838FB
:103B80000068C0F340400028F1D1207800F0020026
:103B900002285FD1BC48006800F00C0058B1BA4858
:103BA000006800F00C0008281CD1B748001F00680E
:103BB00000F48000B0B9B44808380068C0F3400091
:103BC00020B1E068012801D0012063E7AE48083841
:103BD000006820F0F800216940EAC100AA490839CC
:103BE000086037E0E06800B30120A8490860FEF7EC
:103BF0006BFF054606E0FEF767FF401B022801D970
:103C0000032047E7A04808380068C0F340000028B8
:103C1000F1D09D480838006820F0F800216940EA9A
:103C2000C10099490839086014E0002097490860EC
:103C3000FEF74AFF054606E0FEF746FF401B022856
:103C400001D9032026E7904808380068C0F34000F7
:103C50000028F1D1207800F0080008282CD16069F4
:103C6000A8B101208A490860FEF72EFF054606E04C
:103C7000FEF72AFF401B022801D903200AE78248E9
:103C80006C300068C0F340000028F1D014E0002040
:103C90007F490860FEF718FF054606E0FEF714FFAF
:103CA000401B022801D90320F4E677486C300068F5
:103CB000C0F340000028F1D1207800F0040004286F
:103CC00070D1002770483830006800F0805090B9FB
:103CD00000BF002000906C483830006840F08050F1
:103CE0006949383108600846006800F0805000904B
:103CF00000BF00BF01276748006800F48070B0B9BA
:103D00006448006840F4807062490860FEF7DCFE99
:103D1000054606E0FEF7D8FE401B022801D9032025
:103D2000B8E65C48006800F480700028F2D000BF5C
:103D3000A068012808D154486830006840F00100AC
:103D40005149683108601DE0A06805280DD14E4832
:103D50006830006840F004004B496831086008464C
:103D6000006840F0010008600CE0474868300068D7
:103D700020F001004449683108600846006820F0DE
:103D80000400086000BFA068A8B1FEF79DFE0546CC
:103D900009E0FEF799FE401B41F28831884202D9C2
:103DA000032077E626E0384868300068C0F340001A
:103DB0000028EED013E0FEF787FE054608E0FEF788
:103DC00083FE401B41F28831884201D9032061E61D
:103DD0002D4868300068C0F340000028EFD1012F63
:103DE00007D129483830006820F080502649383102
:103DF000086000BFA069002845D02348006800F093
:103E00000C0008285DD0A069022845D100201F4978
:103E10000866FEF759FE054606E0FEF755FE401B14
:103E2000022801D9032035E6174808380068C0F396
:103E300040600028F1D1D4E907010843616A40EAF3
:103E400081110122A06AC2EB500041EA00412C20FE
:103E5000005D41EA00600C49091F086001200B4920
:103E60000866FEF731FE054606E0FEF72DFE401B14
:103E7000022801D903200DE6034808380068C0F382
:103E800040600028F1D049E0083802400000474275
:103E9000800E474200700040002021490866FEF76E
:103EA00013FE054606E0FEF70FFE401B022801D96F
:103EB0000320EFE51B480068C0F340600028F2D102
:103EC0002CE0A069012800D1E4E51648001D066831
:103ED000A069012820D006F48001E06981421BD14D
:103EE00006F03F01206A814216D147F6C07030408B
:103EF000616AB0EB811F0FD106F440310122A06A44
:103F0000C2EB5000B1EB004F06D106F070612C20DF
:103F1000005DB1EB006F01D00120BBE50020B9E5E9
:103F2000000047420038024002460023106800F1BA
:103F3000500303EB81031868704710B50023046831
:103F400004F1500303EB81031A6010BD18B503465A
:103F50004E48006840094FF47A74B0FBF4F06043B7
:103F6000009000BF187F012801D1022018BD012058
:103F7000187700BF0220587700BFCA201C68606213
:103F800053201C68606200BF1868806800F480607D
:103F9000C0B100BF0098401E0090009860B900BFFB
:103FA000FF201C68606200BF0320587700BF00201C
:103FB000187700BF0320D9E71868C068C0F38000F5
:103FC0000028E7D11868806820F480601C68A06031
:103FD0001868C06800F0800060F490601C68E060C1
:103FE0002A48006840094FF47A74B0FBF4F060434B
:103FF000009000BF0098401E0090009860B900BF7C
:10400000FF201C68606200BF0320587700BF0020BB
:10401000187700BF0320A9E71868C068C0F38000C4
:104020000028E7D01868806820F007001C68A060AE
:104030001868806810431C68A060186841611448C3
:10404000006840F48000124C20601148083000687D
:1040500040F480000E4C083420601868806840F4FA
:1040600080401C68A0601868806840F480601C680C
:10407000A06000BFFF201C68606200BF012058776D
:1040800000BF0020187700BF00BF6FE79C00002032
:10409000003C01407047000010B504464FF480001A
:1040A0000A4908602068C068C0F3802050B12068C9
:1040B000C06800F0800060F490602168C86020460D
:1040C000FFF7E8FF0120607710BD0000143C0140BD
:1040D00070B505460B4616460024286840680E4910
:1040E00000EA0104200CD870C4F30420587004F0D6
:1040F0003F009870C4F3423018705EB9D87803F06E
:1041000035FED870587803F031FE5870987803F077
:104110002DFE9870002070BD3FFFFF0070B5044673
:104120000B46164600252068806A586020680069A2
:10413000C0F30E009860206800680E4900EA01058F
:10414000C5F305401870C5F30620587005F07F00D0
:104150009870A80DD8705EB9187803F007FE187033
:10416000587803F003FE5870987803F0FFFD9870BC
:10417000002070BD7F7F7F0070B5044601250CB91B
:10418000012070BD607F20B900202077204600F01C
:104190004DF8022060772068C068C0F30010002846
:1041A0003CD100BFCA202168486253202168486280
:1041B00000BF204603F03CFE0546EDB9206880684C
:1041C000194908402168886021696068084361696D
:1041D0000843216889680843216888602168E0688D
:1041E000086120680169208941EA0040216808616E
:1041F000204603F042FE05465DB92068006C20F4BD
:104200008020216808642068006CA1690843216847
:10421000086400BFFF202168486200E000250DB956
:10422000012060772846ACE7BFFF8FFF1FB504462B
:10423000002000900190029003900D492068884270
:1042400014D102200090C00103906846FFF7ECF9FA
:1042500008B1FDF754F90120064908600022052144
:104260000320FFF781F90320FFF76AF91FBD000063
:10427000002800403C0E47422DE9F04105460C461F
:1042800017464FF0000800BF287F012802D1022006
:10429000BDE8F0810120287700BF022068774FB980
:1042A000607800F01000102804D1607800F0EF0072
:1042B0000A30607087B9E07803F063FD030460782A
:1042C00003F05FFD43EA0023A07803F05AFD0343A7
:1042D000207843EA403809E0E0780004617840EA59
:1042E0000120A1780843217840EA413800BFCA2064
:1042F0002968486253202968486200BF284603F0B5
:1043000097FD064646B90B4808EA00002968486050
:10431000284603F0B2FD06460EB90120687700BFBB
:10432000FF202968486200BF00BF0020287700BF37
:104330003046ADE73FFFFF002DE9F04104460D4652
:1043400017464FF0000800BF207F012802D102204D
:10435000BDE8F0810120207700BF02206077CFB94F
:104360002068806800F0400000B102E00020E870A2
:1043700000BF287803F005FD0304687803F001FD11
:1043800043EA0023A87803F0FCFC0343E87843EAFF
:10439000805812E02068806800F0400000B102E020
:1043A0000020E87000BF28780004697840EA012006
:1043B000A9780843E97840EA815800BFCA202168FB
:1043C000486253202168486200BF204603F030FD58
:1043D0000646B6B9124808EA00002168086020685D
:1043E000806820F4802021688860D5E903010843B3
:1043F00021688968084321688860204603F03DFDF4
:1044000006460EB90120607700BFFF202168486290
:1044100000BF00BF0020207700BF304698E70000B3
:104420007F7F7F0070B5044600250B482168C86077
:10443000FEF74AFB054607E0FEF746FB401BB0F5DA
:104440007A7F01D9032070BD2068C06800F0200089
:104450000028F1D00020F6E75F7F0100F0B589B0B9
:1044600004460E460027032084F83400606C0328BD
:1044700020D0B6F5805F04D1A06B40F08050A063DF
:104480001CE0B6F5006F07D1204604F08DFC054610
:10449000A06B2843A06311E03EB9204604F050FC15
:1044A0000546A06B2843A06308E0A06B40F00060C5
:1044B000A06303E0A06B40F08050A063A06B38B114
:1044C000174821688863012084F83400012713E02D
:1044D00060680390A0680490E068059006966069A3
:1044E0000790A069089006A807C88DE80700206813
:1044F00003A90EC903F0FFFD4FF40071206803F01B
:104500006BFE054635B1064821688863A06B2843D9
:10451000A0630127012084F83400384609B0F0BDBB
:10452000FF0540007047000010B50246506E800F36
:104530000870506EC0F383604870506EC0F3016025
:104540008870506E000CC870B2F86400000A0871E0
:1045500092F864004871906E000DC880906EC0F3B0
:10456000034008726820805AC0F3C0304872682047
:10457000805AC0F3803088726820805AC0F340307F
:10458000C8726820805AC0F3003008730020487356
:10459000506C002836D16820805A8005030DD06EFB
:1045A00043EA90700861D06EC0F3C2600875D06EA7
:1045B000C0F302604875D06EC0F342508875D06E6B
:1045C000C0F38240C875D06EC0F3C2300876086967
:1045D000401C50650B7E506D03F007039B1C0124AB
:1045E0009C4060435065087A00F00F03012098401A
:1045F0009065D2E915035B0A5843D0654FF4007308
:10460000136621E0506C012813D16820805C80067D
:10461000830AD06E43EA104008610869401C830297
:104620005365536DD3654FF400739365936D1366B3
:104630000AE02E4813689863906B40F080509063B6
:10464000012082F8340010BD6C20805AC0F3803005
:1046500001F8190F6C20805AC0F3C61048706C2006
:10466000805C00F07F008870106FC00FC870106F02
:10467000C0F341700871106FC0F382604871106F11
:10468000C0F383508871106FC0F34050C871002090
:104690000872106FC0F3004048727020805AC0F357
:1046A000C03088727020805AC0F38030C872702089
:1046B000805AC0F3403008737020805AC0F3003035
:1046C00048737020805AC0F3812088737020805A0C
:1046D000C0F30120C8737020805CC0F346000874EA
:1046E0000120487419390020ADE70000FF054000A3
:1046F0000246506C0860906C4860D06C8860106D09
:10470000C860506D0861906D4861D06D8861106E11
:10471000C86100207047F8B5044600200090694643
:10472000204604F0F5FA054615B1A06B2843A063B6
:104730000098C0F343263046F8BD10B504460CB9C6
:10474000012010BD94F8340020B9002020772046C5
:1047500000F06AF8032084F83400204600F00CF8DA
:1047600008B10120EDE70020A0632063012084F858
:1047700034000020E5E7000070B58AB00446002050
:10478000049005900690079008907620099007A85D
:1047900007C88DE80700206804A90EC903F0ABFC28
:1047A000064616B101200AB070BD00201C49086001
:1047B000206803F0BAFC01201949A039C1F8A00013
:1047C0000220FDF701FB204604F03CFA05463DB10E
:1047D000012084F83400A06B2843A0630120E2E7A5
:1047E000204604F0AEF905463DB1012084F83400BE
:1047F000A06B2843A0630120D5E74FF40071206827
:1048000003F0EAFC05464DB1064821688863A06BB9
:104810002843A063012084F83400C4E70020C2E7E5
:10482000A0802542FF05400010B586B00446142143
:1048300001A8FBF792FD2A49206888424DD100BFAC
:10484000002000902748006840F400602549086077
:104850000846006800F40060009000BF00BF00BF81
:10486000002000901F481438006840F004001D49E3
:10487000143908600846006800F00400009000BF8A
:1048800000BF00BF002000900846006840F008000C
:1048900008600846006800F00800009000BF00BFF4
:1048A0004FF4F85001900220029000200390032062
:1048B00004900C20059001A90B48FDF7F3FF04209C
:1048C00001900220029000200390032004900C200D
:1048D000059001A90548FDF7E5FF06B010BD0000F1
:1048E000002C01404438024000080240000C024005
:1048F0002DE9F04387B004460F4691461D46C84651
:104900003FB9A06B40F00060A063012007B0BDE894
:10491000F08394F8340001287ED10020A06308EBD6
:104920000501E06D814205D9A06B40F00070A063E5
:104930000120EBE7032084F8340000202168C862DE
:104940002068C06B40F22A3108432168C8633848A8
:10495000216CC8633748216CC8640020216C08654D
:104960000021206C8160206C0068006820F0C0008D
:10497000216C89680843216C096808606A02930801
:10498000226802F180013A46206CFDF7D4F980B12B
:104990002068C06B20F495702168C86326482168A0
:1049A0008863A06B40F08040A063012084F834004D
:1049B000ACE7012021490860606C012801D04FEA72
:1049C00048284FF0FF300190680202909020039039
:1049D00002200490002005900120069001A9206883
:1049E00003F064FB012D07D9822020634146206833
:1049F00003F05AFC064606E0812020634146206809
:104A000003F06EFC064676B10B4821688863A06B04
:104A10003043A063012000E007E084F83400002068
:104A20002063012072E7002070E702206EE700009B
:104A30009D89000829890008FF0540008C852542D2
:104A400010B50446FCF7E6F810BD00002DE9F04370
:104A500087B00446884691461D464F46B8F1000F80
:104A600007D1A06B40F00060A063012007B0BDE853
:104A7000F08394F83400012874D10020A0637919E0
:104A8000E06D814205D9A06B40F00070A063012069
:104A9000ECE7032084F8340000202168C862206815
:104AA000C06B40F21A2108432168C8633848E16BA3
:104AB000C8633848E16BC8640020E16B0865606C2E
:104AC000012800D07F02012D07D9A020206339469C
:104AD000206803F0E3FC064606E090202063394698
:104AE000206803F0F7FC064666B12B48216888630E
:104AF000A06B3043A063012084F8340000202063C1
:104B00000120B3E70120254908604021E06B816066
:104B1000E06B0068006820F0C000E16B8968084322
:104B2000E16B0968086069028B08216801F1800265
:104B30004146E06BFDF7FFF8A8B12068C06B40F27A
:104B40001A2188432168C863134821688863A06BD1
:104B500040F08040A063012084F8340000202063EE
:104B6000012083E711E04FF0FF30019068020290CE
:104B7000902003900020049005900120069001A948
:104B8000206803F093FA002070E702206EE700002F
:104B9000E589000829890008FF0540008C85254229
:104BA00070470000F8B504462068466820688568AC
:104BB000C5F3801048B905F0010030B1C6F380108C
:104BC00018B12046216C8847F8BDC5F3400030B1CC
:104BD000C6F3C01018B12046616C8847F4E7C5F3EE
:104BE000401030B9C5F3801018B9C5F30020002873
:104BF0007CD0C6F3401000287DD0C5F38010F0B102
:104C000094F8510003280ED0606D40F004006065F8
:104C100000BF002000902068C06800902068806875
:104C2000009000BF0BE000BF002000902068C0682B
:104C3000009020688068009000BF00BFC4E7C5F303
:104C4000401088B1606D40F00100606500BF002039
:104C500000902068806800902068006820F0400084
:104C60002168086000BF00BFC5F3002058B1606D27
:104C700040F00800606500BF002000902068806858
:104C8000009000BF00BF606D78B32068406820F0DE
:104C9000E00021684860012084F8510006F002001D
:104CA000022802D006F0010008B32068406820F016
:104CB000030021684860E06C50B11048E16C086561
:104CC000E06CFDF721F818B1606D40F040006065C0
:104CD000A06C50B10948A16C0865A06CFDF714F8F0
:104CE00018B1606D40F04000606503E003E02046CD
:104CF000FFF756FF68E700BF66E70000CD900008A9
:104D000010B504460CB9012010BD606A38B960685E
:104D1000B0F5827F00D105E00021E16102E00021D1
:104D2000216161610021A16294F8510028B900203D
:104D300084F85000204600F047F8022084F8510023
:104D40002068006820F0400021680860A08800F416
:104D50008270218901F404410843A18901F40061B2
:104D60000843217C01F002010843217D01F001018B
:104D70000843218B01F400710843217F01F03801C1
:104D800008432021095D01F080010843218D01F4D1
:104D900000510843216808600421A06901EA10401D
:104DA00094F8241001F0100108432168486020683D
:104DB000C06920F400602168C8610020606501209E
:104DC00084F8510000209FE710B586B004461421F6
:104DD00001A8FBF7C2FA2E492068884255D100BFCE
:104DE000002000902B48006840F48040294908606A
:104DF0000846006800F48040009000BF00BF00BF7C
:104E00000020009023481038006840F00400214939
:104E1000103908600846006800F00400009000BFE8
:104E200000BF00BF002000900846006840F002006C
:104E300008600846006800F00200009000BF00BF54
:104E4000082001900220029000200390032004908B
:104E50000520059001A91048FDF724FD4FF480605E
:104E6000019002200290002003900320049005206E
:104E7000059001A90948FDF715FD00220521242010
:104E8000FEF772FB2420FEF75BFB06B010BD0000AE
:104E90000038004040380240000802400004024050
:104EA0002DE9F84F0446884616461D464FF0000A85
:104EB00000BF94F85000012802D10220BDE8F88F0D
:104EC000012084F8500000BFFDF7FEFD0746B14603
:104ED00094F85100012802D04FF0020AB7E0B8F16F
:104EE000000F00D016B94FF0010AB0E0032084F89B
:104EF000510000206065C4F83080A686E686A06375
:104F0000A087E08760642064A068B0F5004F0BD1F3
:104F10002068006820F04000216808602068006870
:104F200040F48040216808602068006800F040007C
:104F3000402805D02068006840F0400021680860E3
:104F4000E068B0F5006F32D1606810B1B9F1010FBF
:104F500009D1206B00882168C860206B801C206309
:104F6000E08E401EE0861EE02068806800F00200AF
:104F700002280AD1206B00882168C860206B801C41
:104F80002063E08E401EE0860DE0FDF79DFDC01B16
:104F9000A84201D3681C00B92DB94FF0030A0120C3
:104FA00084F8510053E0E08E0028DDD131E06068E4
:104FB00010B1B9F1010F09D1206B00782168087395
:104FC000206B401C2063E08E401EE0861EE02068BF
:104FD000806800F0020002280AD1206B0078216866
:104FE0000873206B401C2063E08E401EE0860DE0BD
:104FF000FDF76AFDC01BA84201D3681C00B92DB99A
:105000004FF0030A012084F8510020E0E08E0028D0
:10501000DDD13A462946204604F062F808B1202046
:105020006065A06850B900BF002000902068C0688B
:10503000009020688068009000BF00BF606D10B1D4
:105040004FF0010A02E0012084F8510000BF00BFC8
:10505000002084F8500000BF50462FE7704770478B
:1050600030B502460B4600BF92F83C00012801D142
:10507000022030BD012082F83C0000BF022082F8EF
:105080003D00106844681068816824F07004186856
:10509000044310684460184D1068A8421BD0106883
:1050A000B0F1804F17D0154D1068A84213D0144DA1
:1050B0001068A8420FD0134D1068A8420BD0124DB3
:1050C0001068A84207D0114D1068A84203D0104DB7
:1050D0001068A84205D121F080015868014310688A
:1050E0008160012082F83D0000BF002082F83C0072
:1050F00000BF00BFBDE70000000001400004004009
:1051000000080040000C0040000401400040014045
:105110000018004010B504460CB9012010BD94F8E9
:105120003D0028B9002084F83C00204600F026F815
:10513000022084F83D00211D206804F017F90120A9
:1051400084F8460000BF84F83E0001213F2001554D
:10515000402001554120015500BF00BF012084F8C7
:10516000420043200155442001554520015500BF10
:10517000012084F83D000020D0E7000008B5016858
:10518000B1F1804F0FD100BF002100911049096893
:1051900041F001010E4A11601146096801F0010158
:1051A000009100BF13E00B4A016891420FD100BF8C
:1051B000002100910649096841F00201044A11608A
:1051C0001146096801F00201009100BF00BF08BD4F
:1051D0004038024000040040014691F83D0001289B
:1051E00001D001207047022081F83D001A4B086869
:1051F00098421BD00868B0F1804F17D0174B086851
:10520000984213D0164B086898420FD0154B086887
:1052100098420BD0144B0868984207D0134B08688B
:10522000984203D0124B086898420CD108688068F5
:1052300000F00702062A0CD00868006840F0010060
:105240000B68186005E00868006840F001000B6812
:1052500018600020C6E70000000001400004004084
:1052600000080040000C00400004014000400140E4
:1052700000180040014691F83D00012801D00120AE
:105280007047022081F83D000868C06840F00100C6
:105290000B68D8601A4B086898421BD00868B0F1B8
:1052A000804F17D0174B0868984213D0164B0868E8
:1052B00098420FD0154B086898420BD0144B0868E1
:1052C000984207D0134B0868984203D0124B0868E5
:1052D00098420CD10868806800F00702062A0CD0BA
:1052E0000868006840F001000B68186005E0086875
:1052F000006840F001000B6818600020C0E7000063
:10530000000001400004004000080040000C004084
:10531000000401400040014000180040014600BF69
:105320000868006A41F21112104050B90868006A1A
:105330009210104028B90868006820F001000A683F
:10534000106000BF012081F83D00002070472DE96A
:10535000F04104460D46002700BF94F83C000128A8
:1053600002D10220BDE8F081012084F83C0000BF9A
:10537000022084F83D002068866826F0770626F42F
:105380007F46206886602868502833D00CDC2028AF
:1053900050D004DC00284BD0102851D149E03028EF
:1053A00049D040284CD139E060282DD0702807D052
:1053B000B0F5805F03D0B0F5005F41D10DE041E072
:1053C000D5E902136A68206804F044F8206886680A
:1053D00046F077062068866034E0D5E902136A68F3
:1053E000206804F037F82068806840F48040216825
:1053F000886027E0EA686968206804F03FF8502177
:10540000206804F032F81DE0EA686968206804F05A
:1054100048F86021206804F028F813E0EA68696819
:10542000206804F02BF84021206804F01EF809E001
:1054300000BF00BF00BF2968206804F016F801E033
:10544000012700BF00BF012084F83D0000BF0020FD
:1054500084F83C0000BF384684E7704770B50446C6
:105460002068C5682068066906F00200022819D184
:1054700005F00200022815D1401F216808610120B3
:1054800020772068806900F0030018B12046FFF7FC
:10549000E4FF05E0204600F097F8204600F095F87C
:1054A0000020207706F00400042819D105F004003C
:1054B000042815D1C04321680861022020772068A4
:1054C000806900F4407018B12046FFF7C6FF05E080
:1054D000204600F079F8204600F077F80020207789
:1054E00006F00800082819D105F00800082815D191
:1054F000C04321680861042020772068C06900F05B
:10550000030018B12046FFF7A8FF05E0204600F091
:105510005BF8204600F059F80020207706F01000D4
:10552000102819D105F01000102815D1C0432168AA
:105530000861082020772068C06900F4407018B125
:105540002046FFF78AFF05E0204600F03DF82046A0
:1055500000F03BF80020207706F0010048B105F08C
:10556000010030B16FF0010021680861204600F0B1
:105570002DF806F08000802809D105F080008028F1
:1055800005D1C043216808612046FFF767FD06F09A
:105590004000402809D105F04000402805D1C04313
:1055A00021680861204600F01DF806F02000202840
:1055B00009D105F02000202805D1C04321680861E9
:1055C0002046FFF74CFD70BD7047704710B504468C
:1055D00003492068884201D1FDF70EFF10BD00008D
:1055E00000000140704770477047014600220023C9
:1055F00091F8412091F8423042EA030070470000E0
:105600002DE9F84F0446206805682068C6682068C0
:1056100047694FF00009CA4605F00F09B9F1000FBC
:105620000AD105F0200038B106F0200020B1204654
:1056300003F0A6FFBDE8F88FB9F1000F7CD007F0AA
:10564000010018B906F49070002875D005F001002B
:1056500030B106F4807018B1606C40F001006064F5
:1056600005F0040030B107F0010018B1606C40F0A3
:105670000200606405F0020030B107F0010018B1CB
:10568000606C40F00400606405F0080048B106F06A
:10569000200010B907F0010018B1606C40F008005C
:1056A0006064606C002846D005F0200028B106F048
:1056B000200010B1204603F063FF20684069C0F36A
:1056C000801A606C00F0080010B9BAF1000F2DD0FC
:1056D000204603F00FFF2068406900F0400040289A
:1056E00020D100BF00BF2168143151E8001F21F014
:1056F00040002168143141E80002002AF3D100BFC4
:10570000E06B50B17748E16B0865E06BFCF7FCFAA1
:1057100088B1E06B016D88470DE02046FFF764FF1C
:1057200009E009E02046FFF75FFF04E02046FFF7AD
:105730005BFF002060647DE7206B012878D105F0D5
:105740001000002874D006F010000028FAD000BF26
:105750000020009020680068009020684068009059
:1057600000BF00BF2068406900F04000402860D1C1
:10577000E06B006840681FFA80F8B8F1000F56D05F
:10578000A08D404553DDA4F82E80E06BC069B0F5D4
:10579000807F43D000BF00BF21680C3151E8001F5B
:1057A00021F4807021680C3141E80002002AF3D115
:1057B00000BF00BF00BF2168143151E8001F21F075
:1057C00001002168143141E80002002AF3D100BF32
:1057D00000BF00BF2168143151E8001F21F04000D4
:1057E0002168143141E80002002AF3D100BF2020D3
:1057F00084F842000020206300BF00BF21680C3104
:1058000051E8001F21F0100021680C3141E800022E
:10581000002AF3D100BFE06BFCF720FA022060639E
:10582000A08DE28D801A81B22046FFF7DCFE01E7F1
:1058300042E0A08DE18D401A1FFA80F8E08DD0B3D0
:10584000B8F1000F37D000BF00BF21680C3151E81C
:10585000001F21F4907021680C3141E80002002AF9
:10586000F3D100BF00BF00BF2168143151E8001F11
:1058700021F001002168143141E80002002AF3D12F
:1058800000BF202084F842000020206300BF00BF3A
:1058900021680C3151E8001F21F0100021680C3103
:1058A00041E80002002AF3D100BF022060634146B4
:1058B0002046FFF798FEBDE605F0800030B106F007
:1058C000800018B1204603F0EFFFB3E605F040007A
:1058D00030B106F0400018B1204603F041FEA9E6C1
:1058E00000BFA7E6E194000810B504460CB90120FA
:1058F00010BDA06900B100E000BF94F8410028B9D4
:10590000002084F84000204600F02AF8242084F883
:1059100041002068C06820F400502168C86020461B
:1059200003F0ACFE2068006920F490402168086113
:105930002068406920F02A00216848612068C0681A
:1059400040F400502168C86000206064202084F882
:10595000410084F842000020606300BFC8E70000F7
:1059600010B586B00446142101A8FAF7F6FC4549A3
:105970002068884238D100BF00200090424800686B
:1059800040F01000404908600846006800F0100030
:10599000009000BF00BF00BF002000903A481438BC
:1059A000006840F001003849143908600846006872
:1059B00000F00100009000BF00BF4FF4C0600190F4
:1059C00002200290002003900320049007200590FD
:1059D00001A92E48FCF766FF002205212520FDF7CE
:1059E000C3FD2520FDF7ACFD29492068884247D139
:1059F00000BF002000902448001F006840F40030E1
:105A00002149091F08600846006800F40030009032
:105A100000BF00BF00BF002000901B481438006882
:105A200040F008001849143908600846006800F082
:105A30000800009000BF00BF4020019002200290AB
:105A400000200390032004900720059001A911482D
:105A5000FCF728FF202001900220029000200390F4
:105A6000032004900720059001A90A48FCF71AFFBB
:105A7000002205212620FDF777FD2620FDF760FD99
:105A800006B010BD00100140443802400000024042
:105A900000440040000C024070472DE9F84F0446D6
:105AA0000E46174699464FF0000A94F84100202808
:105AB00050D106B117B90120BDE8F88F002060640D
:105AC000212084F84100FCF7FFFF8246A784E78489
:105AD000A068B0F5805F04D1206910B90025B046F8
