:020000040800F2
:10000000B0660120610200087D7C0008D55F000811
:10001000ED7B0008E90D0008859C00080000000049
:10002000000000000000000000000000A101000826
:10003000BF10000800000000FD0100084595000801
:100040007B0200087B0200087B020008098300088D
:100050007B0200087B0200087B0200087B0200088C
:100060007B020008311700087B0200087B020008B1
:100070007B0200087B0200087B0200087B0200086C
:100080007B0200087B020008DD0900087B020008F3
:100090007B0200087B0200087B0200087B0200084C
:1000A0007B0200082D9600087B0200087B020008F6
:1000B0007B0200087B0200087B0200087B0200082C
:1000C0007B0200087B0200087B0200087B0200081C
:1000D0008D930008659C0008759C00087B02000851
:1000E000151700087B0200087B0200087B0200084D
:1000F0007B0200087B0200087B0200087B020008EC
:100100007B0200087B0200087B0200087B020008DB
:100110007B0200087B0200087B0200087B020008CB
:100120007B0200087B0200087B0200087B020008BB
:100130007B020008CD1100087B0200087B0200084A
:100140007B0200087B0200087B0200087B0200089B
:100150007B0200087B0200087B0200087B0200088B
:100160007B0200087B0200087B0200087B0200087B
:100170007B0200087B0200087B02000800000000F0
:100180007B0200087B020008DFF810D000F0E8FBDB
:1001900000480047B9FB0008AFF30080B0660120BB
:1001A0002C4B19680868B0E8F04F80F30988BFF35A
:1001B0006F8F4FF0000080F311887047000000003F
:1001C00008480068006880F308884FF0000080F35A
:1001D000148862B661B6BFF34F8FBFF36F8F00DF35
:1001E00000BF00BF08ED00E0DFF80C00016841F43B
:1001F00070010160704700BF88ED00E0EFF30980F7
:10020000BFF36F8F134B1A681EF0100F08BF20ED5D
:10021000108A20E9F04F106009B44FF0A00080F37D
:100220001188BFF34F8FBFF36F8F1BF029FE4FF084
:10023000000080F3118809BC19680868B0E8F04F25
:100240001EF0100F08BFB0EC108A80F30988BFF3CE
:100250006F8F7047A8000020EFF305807047000003
:100260000648804706480047FEE7FEE7FEE7FEE750
:10027000FEE7FEE7FEE7FEE7FEE7FEE71996000869
:10028000890100082DE9F05F0546002092469B4653
:1002900088460646814640241BE02846414647469C
:1002A000224600F077FA53465A46C01A914110D3BD
:1002B00011461846224600F05EFA2D1A67EB010837
:1002C0004F4622460120002100F055FA17EB0009A5
:1002D0004E41201EA4F10104DFDC484631462A4687
:1002E0004346BDE8F09F00000649074A08685043AE
:1002F00043F2390210440860400870470149086021
:1003000070470000180300206D4EC64110B5431A17
:10031000934209D28318881803E010F8011D03F8EE
:10032000011D521EF9D210BD40EA01039B0703D004
:1003300009E008C9121F08C0042AFAD203E011F824
:10034000013B00F8013B521EF9D210BDD2B201E0D0
:1003500000F8012B491EFBD270470022F6E710B5CA
:1003600013460A4604461946FFF7F0FF204610BD23
:1003700010B5044604E00B7800F8013B03B1491CBA
:10038000521EF8D2204610BD421C10F8011B002955
:10039000FBD1801A704730B504460020034600E0C8
:1003A0005B1C934203D2E05CCD5C401BF8D030BDB7
:1003B000034611F8012B00F8012B002AF9D1184649
:1003C00070472DE9FE4F804681EA0300C00F0C46BE
:1003D000009021F0004123F00045B8EB0200A94154
:1003E00005D24046214690461C460B46024623F065
:1003F0000040104347D0270DC7F30A00C3F30A514A
:100400000290401A019040286BDAC3F3130040F4C5
:10041000801B0098924620B10023D2EB030A63EBC5
:100420000B0B01985946C0F14002504600F0A3F969
:1004300006460D4650465946019A00F0BBF910EBAE
:1004400008006141002487EA115284EAE7731A43E5
:1004500040D0009A62B3019A012A4FEA075215DC94
:10046000001B61EB02014FF0004202EA0752CDE9A6
:100470000042001C41F5801132462B4600F0F2F993
:1004800003B0BDE8F08F40462146F9E7001B61EB61
:100490000201001C41F5801300185B412018A2F5F1
:1004A000001747EB030140EAD570B6196D4111E022
:1004B0006D084FEA360645EAC0754FEA0752001B41
:1004C00061EB0201001C41F5801149084FEA300040
:1004D0000019514132462B4603B0BDE8F04F00F001
:1004E000B2B90098012240000023D0EB020263EB76
:1004F000E073009821464FEAE074B8EB000061EB2E
:100500000401E9E783F000435BE781F0004158E72D
:100510002DE9FE4F81EA030404F0004421F000417C
:1005200000944FF0000B23F0004350EA01045ED02A
:1005300052EA03045BD0C3F30A54C1F30A552C44B6
:10054000A4F2F3340194A0FB0254C1F3130141F46B
:100550008011C3F3130343F4801301FB024400FB37
:10056000034E840A970A44EA815447EA8357A4FB5E
:10057000076802958D0A05FB07854FEA932C04FB5B
:100580000C542705029D4FEA065847EA1637B5EB8B
:1005900008056EEB070C870E920E47EA811742EAB8
:1005A0008312A7FB0201B6EB0B0164EB00042B0DD9
:1005B00043EA0C335E1844EB1C50DA465146E7FB25
:1005C0000201C5F313044FEA0B3343EA14534FEA15
:1005D0000432019C43EA0603A4F10C040294009C3B
:1005E000CDE900B400F03EF903B0BDE8F08F002083
:1005F0000146F9E72DE9F04D81EA030404F0004BD0
:1006000021F0004514464FF0000A23F0004150EA63
:10061000050220D054EA01021DD0C5F30A57024654
:10062000C5F31303C1F31300C1F30A5640F4801558
:1006300043F48013A7EB0608101BD64608F2FD38DA
:1006400073EB050002D308F1010801E092185B4149
:10065000B8F1000F03DA00200146BDE8F08D00205C
:100660004FF48011064684460EE0171B73EB050716
:1006700005D3121B63EB050306434CEA010C490842
:100680004FEA300092185B4150EA0107EDD152EA7F
:10069000030012D082EA040083EA0501084305D072
:1006A000101BAB4106D20122002306E000224FF0CE
:1006B000004302E06FF0010253101AEB06004CEB0E
:1006C000085110EB0A0041EB0B01BDE8F04D00F0C2
:1006D000BAB80EB540F2334102910021CDE90011C4
:1006E0000A460B4600F0BEF803B000BD00F0004221
:1006F00030F000400AD0C10D01F56071C0F3160062
:1007000042EA0151C20840071143704700200146E8
:10071000704701F0004330B421F0004150EA01027B
:1007200006D00A0DA2F56072C1F31301002A02DCA3
:1007300030BC00207047440F44EAC104C100E018F7
:1007400030BC00EBC25000F047B830B50B46014654
:1007500000202022012409E021FA02F59D4205D360
:1007600003FA02F5491B04FA02F52844151EA2F10A
:100770000102F1DC30BD202A04DB203A00FA02F14C
:10078000002070479140C2F1200320FA03F319437F
:1007900090407047202A04DB203A21FA02F0002121
:1007A000704721FA02F3D040C2F120029140084381
:1007B00019467047202A06DBCB17203A41FA02F08F
:1007C00043EAE07306E041FA02F3D040C2F12002AE
:1007D00091400843194670470029A8BF7047401C44
:1007E000490008BF20F00100704710B4B0FA80FC47
:1007F00000FA0CF050EA010404BF10BC704749B184
:10080000CCF1200421FA04F411FA0CF118BF0121F3
:1008100021430843A3EB0C01CB1D4FEA00614FEAD3
:10082000102042BF002010BC704700EBC3501044A2
:100830000029A4BF10BC7047401C490008BF20F02D
:10084000010010BC704710B5141E73F1000408DAE3
:10085000401C41F1000192185B411A4301D120F084
:10086000010010BD2DE9F04D92469B4611B1B1FA41
:1008700081F202E0B0FA80F220329046FFF77BFF6F
:1008800004460F4640EA0A0041EA0B0153465A4625
:10089000084313D0114653EA010019D0C8F14002B1
:1008A0005046FFF777FF05460E46504659464246EA
:1008B000FFF761FF084305D0012004E020463946D8
:1008C000BDE8F08D0020054346EAE0762C4337432F
:1008D0000A986305E40AA0EB08000022FD0A44EA36
:1008E00047540A3002D500200146E9E701051019F6
:1008F0006941DDE9084500196941BDE8F04DA2E70D
:10090000C1F30A52C1F3130140F2FF3341F48011E5
:100910009A4202DA00200146704740F233439A427D
:10092000A2F2334202DC5242FFF734BFFFF723BF8B
:1009300030B5041E71F1000404DB4FF00044404266
:1009400064EB0101141E73F1000405DB1C464FF03B
:100950000043524263EB0403994208BF904230BD0A
:10096000064C074D06E0E06840F0010394E80700FC
:1009700098471034AC42F6D3FFF70AFC74C802085B
:1009800094C8020870B58C1810F8015B15F00703C5
:1009900001D110F8013B2A1106D110F8012B03E018
:1009A00010F8016B01F8016B5B1EF9D12B0705D420
:1009B0000023521E0DD401F8013BFAE710F8013B69
:1009C000CB1A921C03E013F8015B01F8015B521E85
:1009D000F9D5A142D8D3002070BD000010B502485F
:1009E00000F0D9FF10BD0000340B002055494A68C3
:1009F00022F440324A604A6843681A434A600268F7
:100A0000526822F4807203685A600268536802696F
:100A100043EA022203685A600268526822F0407278
:100A200003685A600268526883681A4303685A6010
:100A30000268926822F4006203689A600268926811
:100A4000C3681A4303689A603F4B826A9A4218D07F
:100A50000268926822F0706203689A600268926885
:100A6000836A1A4303689A600268926822F04052CF
:100A700003689A6002689268C36A1A4303689A60BE
:100A80000BE00268926822F0706203689A60026864
:100A9000926822F0405203689A600268926822F0DD
:100AA000020203689A6002689368027E43EA420287
:100AB00003689A602022125CA2B10268526842F474
:100AC000006203685A600268526822F46042036858
:100AD0005A6002685368426A521E43EA423203680F
:100AE0005A6005E00268526822F4006203685A60A6
:100AF0000268D26A22F470020368DA620268D36A7A
:100B0000828B521E43EA02520368DA6202689268DC
:100B100022F4007203689A600268936890F83020AB
:100B200043EA422203689A600268926822F4806273
:100B300003689A6002689368426943EA8222036804
:100B40009A607047002301400100000F06F02EFC60
:100B500000BF064801F04EF8044800F018FF0449B1
:100B600088814FF4FA7010F03DFAF2E7340B002060
:100B7000BE02002010B504462146024803F038FFAB
:100B800010BD0000C4A5002010B5044803F043FFC9
:100B9000042801D0012010BD0020FCE7C4A50020DE
:100BA00010B500240F48104908600020486000215B
:100BB0000D488160C160016141610C2181610021AA
:100BC00000F014F8084803F038FF00B101243CB9E4
:100BD0000021054803F0C4FD08B1012400E0002411
:100BE000204610BD002C0140C4A5002030B587B0C0
:100BF00004460D4600BF002001906148006840F4A3
:100C000000605F4908600846006800F400600190D9
:100C100000BF00BF00BF0020019059481438006891
:100C200040F480005649143908600846006800F412
:100C30008000019000BF00BF00BF00200190084667
:100C4000006840F0040008600846006800F00400F6
:100C5000019000BF00BF00BF00200190084600685F
:100C600040F0080008600846006800F008000190A5
:100C700000BF00BF022003900120049003200590D4
:100C80000C2006904FF4F850029002A93D4801F064
:100C90008BFF0420029002A93B4801F085FF00224F
:100CA0000521312002F0E2FD312002F0CBFD4FF0B2
:100CB000006036494860002134488160C1604FF4CB
:100CC0008061016189004161890081612021C161E8
:100CD0004FF44031016204214162032181624FF4EB
:100CE0000001C1628910016329482849086000BFDA
:100CF00008462064846300BF01F03AF9234801F0FC
:100D00006FF94FF00060234948604021214881601D
:100D10000021C1604FF48061016189004161890057
:100D200081612021C1614FF440310162042141629F
:100D3000032181624FF40001C162891001631448EC
:100D400048301449086000BF0846E063846300BF70
:100D500001F00EF90F4801F043F9002206213B2073
:100D600002F084FD3B2002F06DFD002206214520AB
:100D700002F07CFD452002F065FD07B030BD0000AB
:100D80004438024000080240000C024048A60020FF
:100D900058640240A8A60020F8B504460D46164641
:100DA0001F4633462A4621460448009703F0BEFEFC
:100DB00008B10120F8BD0020FCE70000C4A5002018
:100DC000F8B504460D4616461F4633462A462146C8
:100DD0000448009703F0FCFF08B10120F8BD002093
:100DE000FCE70000C4A5002000BFFEE7014608782C
:100DF00010381823B0FBF3F20848805CC865032A5A
:100E000005D908686FF30900001D886503E00868CC
:100E10006FF309008865886D7047000014C50208EB
:100E2000014600208A6A8B69CBB932B1012A0DD004
:100E3000022A03D0032A10D10EE000BFCB6A03F0D0
:100E40008073B3F1807F00D1012007E0CB6AB3F15A
:100E5000C07F00D1012001E000E000BF34E08B69D9
:100E6000B3F5005F1AD132B1012A07D0022A03D0AC
:100E7000032A11D10AE000BF01200EE0CB6A03F083
:100E80008073B3F1807F00D1012006E0CB6AB3F11B
:100E9000C07F00D1012000E000BF15E032B1012A7F
:100EA00005D0022A04D0032A0CD103E000BF00BF02
:100EB000012008E0CB6A03F08073B3F1807F00D19A
:100EC000012000E000BF00BF704738B50446002095
:100ED00000906A460121636920689847002802DA79
:100EE0006FF0040038BD6A460121636920689847A5
:100EF000002802DA6FF00400F4E7009800F0040024
:100F000008B90120EEE76A46002163692068984726
:100F1000002802DA6FF00400E4E7009800F4805043
:100F2000B0F5805F1FD0009800F40050B0F5005F6E
:100F300007D1009800F48070B0F5807F01D10220C5
:100F4000D0E7009800F40050B0F5005F01D1032015
:100F5000C8E7009800F48070B0F5807F01D10420CC
:100F6000C0E70520BEE76A461021636920689847FC
:100F7000002802DA6FF00400B4E7009800F01000D7
:100F800008B90620AEE7009800F00600042801D159
:100F90000220A7E7009800F0060008B90320A1E7A7
:100FA000009800F00600062801D104209AE70520E9
:100FB00098E7F8B504460027002000900025002699
:100FC0006068002855D1A06808B1A068804720203B
:100FD0002060002513E06A46192128466369984776
:100FE000002802DA6FF0040608E0009800F01F0005
:100FF000A84202D12560002603E000BF6D1C1F2D12
:10100000E9D900BF20681F2801D96FF0020656BB3E
:101010004FF400420021236920689847002826DB0E
:101020006A46002163692068984700281CDBA06994
:101030008047074612E0A0698047C01BB0F5FA7FE1
:1010400009D86A460021636920689847002805DAB4
:101050006FF0040607E06FF0010604E0009800F46A
:1010600000400028E7D104E06FF0040601E06FF0D3
:1010700003065EB9A0698047074600BFA0698047A4
:10108000C01BB0F5FA6FF9D9012060603046F8BD99
:1010900002462AB1C86818B1886808B1086910B951
:1010A0004FF0FF307047086890604B68D360CB68A2
:1010B00053618B6813610B6993610020F2E77047FD
:1010C00010B50146002226E002EB82040B6903EB17
:1010D000C4000023036043608360C3600362436213
:1010E0004FF0004303604FF48C434360436823F0A8
:1010F0000043436001F1480343F82200032A07D26A
:1011000002EB82040B6903EBC4032833C36001E0E4
:101110000B69C360521C042AD6D30024CC650C662C
:101120008C66CC668C650B6803F580530C69DC60BB
:1011300010BD10B50146002222E002EB8204CB680C
:1011400003EBC4000023036043608360C36001F1CC
:10115000180343F82200036843F480130360032A52
:1011600007D202EB8204CB6803EBC4032833C360CD
:1011700001E0CB68C360036843F440030360521C82
:10118000042ADAD300248C620B6803F58053CC6800
:101190001C6110BD38B5044600200090206800F5A1
:1011A0008050806940F48011206800F58050816192
:1011B000206800F5805080690090012000F086FFD3
:1011C0000099206800F58050816138BD10B5024853
:1011D00001F018F810BD000064A4002030B50346EB
:1011E0001479557944EA0520084C0C442064D478DD
:1011F0002406957844EA0544557844EA0524157890
:1012000044EA0500014C0C44606430BD008002409B
:1012100010B5A4B0044601208DF83C008DF83D00C7
:1012200000200D908DF84B0001208DF84A00002021
:101230008DF8480001208DF8300000208DF84C001A
:101240008DF83B0014908DF854001D908DF87800B7
:101250001F908DF882008DF880004FF48040109030
:10126000C010119000208DF881000BA9204600F0DD
:1012700083F901208DF80C008DF80D008DF81D000C
:101280008DF80E00002005908DF81C008DF81E00D2
:10129000089001208DF824008DF8040000040290CD
:1012A000800106904012049001208DF82500002056
:1012B0000A9000906946204600F0FEF824B010BD68
:1012C0000020704710B501F081FD10BD10B5024837
:1012D00001F09AFA002010BD64A4002070B5044605
:1012E0000D46164633462A462146044801F0BEF90B
:1012F00010B14FF0FF3070BD0020FCE764A4002067
:1013000070B504460D46164633462A462146044823
:1013100001F0D1FB10B14FF0FF3070BD0020FCE7B1
:1013200064A400202DE9F04F80460C46164608F1D3
:1013300018031A69D3F810904FF0000C53F82210DC
:10134000A568E246086800F00040B0F1004F04D004
:1013500003F1140050F8220010B10220BDE8F08F14
:101360000CF1010C2868886048686FF30C00D5F810
:1013700004B040EA0B004860207800F0010038B16A
:10138000086820F44000D4F814B040EA0B0008606C
:10139000207800F0200038B1086820F04060D4F8D0
:1013A00010B040EA0B000860207800F0040018B18B
:1013B000086840F080000860086840F080500860CD
:1013C000BFF35F8F086840F00040086051E0086894
:1013D00020F00050086026B1086840F080400860A6
:1013E00003E0086820F08040086000BF521C042A17
:1013F00000D3121F00BF53F82210086820F080505D
:101400000860086800F00040B0F1004F04D003F11C
:10141000140050F82200B8B14A4653F822100027B1
:101420000EE0BFF35F8F086820F00040086000BF47
:10143000521C042A00D3121F00BF53F822107F1C35
:101440006745EED3022089E70CF1010CAD682868EE
:10145000886048686FF30C00D5F804B040EA0B00D0
:1014600048600AF1010ABFF35F8F086840F000404E
:101470000860A8680028AAD126B1086840F080401A
:10148000086003E0086820F080400860086840F0C9
:101490000050086003F11400D3F824B040F822B0E3
:1014A0001A6172B60AF10100D3F828B05844986264
:1014B00062B6002052E7000070B505460C46286869
:1014C00000F5805086692B480640207B08B9012032
:1014D00000E000208006617B40EA4160617F09B93D
:1014E000012100E0002140EA0150A17B40EA415087
:1014F00061690843217F40EAC110A17F40EA811061
:10150000216A084394F8241040EA810006432868C1
:1015100000F580508661286800F5805086690120BA
:1015200000F0D4FD286800F5805086612179A0681C
:1015300040EA4160A16908432169084394F82510F5
:1015400040EAC110A16A40EA81002168084340F4E2
:101550000001286800F580500160286800F580507F
:101560000668012000F0B2FD286800F58050066092
:1015700070BD0000233FDEF870B505460C462868B4
:1015800006683A480640207C08B9012000E00020A7
:10159000C005617C09B9012100E0002140EA8150C9
:1015A000A1680843E17F40EA014061690843A17FE7
:1015B00009B9012100E0002140EA4130217F40EAE1
:1015C0000130A1690843217940EA812094F8201074
:1015D00009B9012100E0002140EA4120E17B40EA15
:1015E000C110616A084394F8281040EA01100643CC
:1015F0002868066028680668012000F067FD2868F2
:101600000660286886694FF641700640A06C0004A9
:1016100094F84C1009B9012100E0002140EAC11002
:10162000216D084394F85510012900D100E00021F4
:1016300040EAC10094F85610012900D100E00021D1
:1016400040EA810094F85410012900D100E0002103
:1016500040EA4100064328688661286886690120BF
:1016600000F034FD2868866170BD00000F8120FF06
:101670002DE9F8430446002000904FF00109A56EC3
:1016800004F1480050F82560E76E27E0306A58B949
:10169000684601F05DF8009810B94FF0000903E0CA
:1016A000009830620098B060B9F1000F16D0A06DBC
:1016B00010B91748706002E04FF48C4070603068D9
:1016C00040F00040306000BF6D1C042D00D32D1F82
:1016D00000BF04F1480050F825607F1E17B1B9F132
:1016E000000FD3D1E06EB8420FD0681C00F00308A1
:1016F000BFF35F8F08EB8801206900EBC101206810
:1017000000F580508160A566E766BDE8F8830000BB
:101710000046008010B54FF4806001F037FA4FF4B6
:10172000006001F033FA4FF4805001F02FFA10BD41
:1017300010B5082001F02AFA10BD72B6704772B6D3
:1017400000BFFEE762B6704730B504460D46002282
:101750002946204600F002F830BD0000F0B50346EF
:10176000012500241148407A01281CDC00200F4E7E
:10177000767A0E4FB8553846467A001D40F8263026
:10178000001F467A083082553E46707A461C7E72AB
:10179000044604F1300008703A2048702F20887009
:1017A0000020C87000252846F0BD0000A06201207E
:1017B0007047000038B502460020009000BF92F844
:1017C0003C00012801D1022038BD012082F83C00F4
:1017D00000BF0868092816D91068C0680C780A3C50
:1017E00004EB44050724AC40A0431468E0600C7887
:1017F0000A3C04EB44048868A0401468E468204371
:101800001468E06013E0106800690C7804EB44058C
:101810000724AC40A043146820610C7804EB440416
:101820008868A040146824692043146820614868CF
:10183000072817D21068406B0C79641E04EB8405EE
:101840001F24AC40A04314686063088880B20C7900
:10185000641E04EB8404A0401468646B2043146885
:10186000606331E048680D2817D21068006B0C796E
:10187000E41F04EB84051F24AC40A04314682063DC
:10188000088880B20C79E41F04EB8404A04014683B
:10189000246B20431468206316E01068C06A0C793A
:1018A0000D3C04EB84051F24AC40A0431468E062A7
:1018B000088880B20C790D3C04EB8404A0401468C5
:1018C000E46A20431468E062194B1A4C1068A04285
:1018D00006D10868122803D1586840F48000586087
:1018E000144C1068A0421CD10868102802D0086867
:1018F000112816D1586840F4000058600868102874
:101900000FD10D4800680D4CB0FBF4F000EB8000E7
:101910004000009002E00098401E009000980028CF
:10192000F9D100BF002082F83C0000BF00BF4BE7A8
:101930000023014000200140A400002040420F008D
:1019400010B50446204600F022F80B49086008460E
:1019500090ED000AB8EE400ADFED080A80EE201A8A
:101960009FED070A21EE000A064880ED000A0648AE
:1019700000F0E6F910BD0000500000200000804596
:10198000333353404C000020340B00207047014695
:101990000868C06C70472DE9F04104460025002618
:1019A000206807682068D0F8048007F0020508F076
:1019B000200695B38EB3206C00F0100018B9206C8F
:1019C00040F4007020642068806800F04050E8B95E
:1019D000207ED8B92068C06A00F4700020B1206869
:1019E000806800F4806088B92068406820F020009A
:1019F00021684860206C20F480702064206C00F422
:101A0000805018B9206C40F0010020642046FFF798
:101A100097FF6FF012002168086007F0040508F0D6
:101A20008006E5B3DEB3206C00F0100018B9206C1E
:101A300040F4005020642068806800F4401038BBF7
:101A40002068806B00F4401020B12068806800F4AA
:101A50008060E8B92068406800F48060C0B9206800
:101A6000806800F0405098B9207E88B920684068AE
:101A700020F0800021684860206C20F480502064B1
:101A8000206C00F4807018B9206C40F001002064D4
:101A90002046FFF78DFE6FF00C002168086007F00C
:101AA000010508F0400685B17EB12068006800F0AD
:101AB000010050B1206C40F480302064204600F0DA
:101AC0004FF86FF001002168086007F0200508F06A
:101AD00080667DB176B1606C40F0020060646FF0AA
:101AE0002000216808602046FFF750FF6FF02000BB
:101AF00021680860BDE8F08170B5044600250CB986
:101B0000012070BD1549A06A884200D000BF206C3A
:101B100030B9204600F026F80020606484F83C00CC
:101B2000206C00F0100088B9206C20F4885040F040
:101B3000020020642046FEF759FF00206064206CFC
:101B400020F0020040F00100206400E0012500BF09
:101B5000002084F83C0000BF2846D2E70100000FB7
:101B60007047000010B586B00446142101A8FEF7A6
:101B7000F4FB1D492068884233D100BF002000904B
:101B80001A48006840F480701849086008460068E8
:101B900000F48070009000BF00BF00BF00200090E4
:101BA00012481438006840F00200104914390860E7
:101BB0000846006800F00200009000BF00BF01204E
:101BC0000190032002900020039001A9084800F032
:101BD000EBFF00220521122001F048FE122001F047
:101BE00031FE06B010BD0000002001404438024024
:101BF0000004024008B501460020009000BF91F8A3
:101C00003C00012801D1022008BD012081F83C00E0
:101C100000BF0868806800F00100A0B9086880680B
:101C200040F001000B6898603F4800683F4BB0FBF4
:101C3000F3F000EB4000009002E00098401E00909E
:101C400000980028F9D10868806800F00100002899
:101C500060D0086C40F20163984340F480700864DF
:101C60000868406800F4806028B1086C20F40050D7
:101C700040F480500864086C00F48050B0F5805F38
:101C800004D1486C20F00600486401E0002048645C
:101C900000BF002081F83C0000BF254A6FF0220001
:101CA0000B681860506800F01F0018BB214B0868D3
:101CB000984213D0204B0868984204D1101D006848
:101CC00000F01F0050B11D4B086898422AD11848F7
:101CD000001D006800F01F00102823D208688068EB
:101CE00000F04050F0B90868806840F080400B6810
:101CF000986017E00F4B0868984213D10868806815
:101D000000F0405070B90868806840F080400B686F
:101D1000986007E0086C40F010000864486C40F0E0
:101D20000100486400206FE7A400002040420F003B
:101D30000023014000200140002101400022014019
:101D400008B501460020009000BF91F83C00012832
:101D500001D1022008BD012081F83C0000BF0868C5
:101D6000806800F00100A0B90868806840F00100B8
:101D70000B68986042480068424BB0FBF3F000EB00
:101D80004000009002E00098401E0090009800285B
:101D9000F9D10868806800F00100002866D0086C5E
:101DA00040F20163984340F480700864086840681A
:101DB00000F4806028B1086C20F4005040F480509A
:101DC0000864086C00F48050B0F5805F04D1486C62
:101DD00020F00600486401E00020486400BF0020B5
:101DE00081F83C0000BF284A6FF022000B681860A1
:101DF00008684068254B18430B685860506800F02D
:101E00001F0018BB224B0868984213D0214B08686A
:101E1000984204D1101D006800F01F0050B11E4B05
:101E2000086898422AD11848001D006800F01F0079
:101E3000102823D20868806800F04050F0B9086884
:101E4000806840F080400B68986017E0104B08688D
:101E5000984213D10868806800F0405070B9086853
:101E6000806840F080400B68986007E0086C40F0A4
:101E700010000864486C40F001004864002069E7E5
:101E8000A400002040420F00002301402000000475
:101E900000200140002101400022014070B50446AD
:101EA000A56D00F093FF064694F83500022808D08F
:101EB0008020606500BF002084F8340000BF01204E
:101EC00070BD2068006820F0160021680860206856
:101ED000406920F0800021684861206C08B9A06C3E
:101EE00028B12068006820F0080021680860206898
:101EF000006820F001002168086010E000F066FF33
:101F0000801B05280BD920206065032084F835004C
:101F100000BF002084F8340000BF0320D0E7206811
:101F2000006800F001000028E8D194F85C103F2020
:101F30008840A860012084F8350000BF002084F8A4
:101F4000340000BF00BFBBE7014691F8350002280E
:101F500003D08020486501207047052081F83500B6
:101F60000868006820F001000A6810600020F3E7AC
:101F700070B504460CB9012070BD94F835000228F4
:101F800000D1F9E72068006820F0010021680860AE
:101F90000020216808602168486021688860216805
:101FA000C860216808612120216848612046FEF749
:101FB0001DFF05460020E06320646064A064E064C7
:101FC000206594F85C103F208840A8600020606580
:101FD00084F8350000BF84F8340000BF00BFCBE7B1
:101FE0002DE9F0410446002500F0F0FE074614B943
:101FF0000120BDE8F081606A00B100BF022084F8D2
:10200000350000BF002084F8340000BF206800685D
:1020100020F00100216808600AE000F0D7FEC01B34
:10202000052805D920206065032084F83500E0E705
:102030002068006800F001000028EED120680568E3
:1020400021480540D4E901010843E16808432169BA
:10205000084361690843A1690843E1690843216AAB
:1020600008430543606A042803D1D4E90B010843FF
:102070000543206805602068456925F00705606A0A
:102080000543606A04280DD1A06A0543E06A48B19F
:102090002046FEF7C5FE28B140206065012084F887
:1020A0003500A6E7206845612046FEF79FFE0646FC
:1020B00094F85C103F208840B060002060650120EB
:1020C00084F83500002094E73F8010F070B5044696
:1020D00000F07CFE06462546681C10B104480078D6
:1020E000054400BF00F072FE801BA842FAD370BD09
:1020F000A000002010B50446204600F00BF800F0C8
:102100008000802803D1024800680FF053FA10BD08
:10211000600000200146D1F88C007047024609B9E2
:102120000120704710680068C0F3001081F8280093
:102130001068006800F06000486210680068C0F332
:10214000402080F0010081F8200010680068C0F392
:102150000040C87710680068C0F3403080F001008C
:10216000887710680068C0F300300877106800684E
:1021700000F4006088611068006800F480404861E5
:1021800010680068C0F3805080F001004874106847
:102190000068C0F3C05080F0010008741068006847
:1021A000C0F3C010C8731068006800F46020886035
:1021B00010680068C0F38020087110688069C0F35F
:1021C000400081F8540010688069C0F3C01080F0AE
:1021D000010081F84C001068806900F0300008654B
:1021E00010688069000C886410688069C0F3800002
:1021F00081F8560010688069C0F3C00081F855006E
:1022000000208EE710B50446206800F58050406934
:1022100000F0400040280FD1206800F58050C069D0
:1022200000F04000402807D14249206800F5805066
:102230004161204600F0B0FA206800F58050406906
:1022400000F0010078B1206800F58050C06900F00E
:10225000010040B14FF00111206800F5805041614C
:10226000204600F017FC206800F58050406900F41B
:102270000040B0F5004F3DD1206800F58050C069A6
:1022800000F40040B0F5004F34D1D4F8880040F09D
:102290000800C4F88800206800F58050406900F408
:1022A0000050B0F5005F15D1206800F580504069FE
:1022B00021490840C4F88C00206800F58050C069AE
:1022C00020F4C031206800F58050C161E020C4F8DE
:1022D00084000CE0206800F58050406948F280617D
:1022E0000840C4F88C00206800F580504161204609
:1022F000FFF700FF2068806B00F0080008280BD172
:102300002068C06A00F06000C4F89400204600F025
:102310002BF90020C4F894000848006800F400205D
:1023200030B14FF4002005490860204600F0C2FBA0
:1023300010BD00004000010000207E00143C014060
:1023400038B504460CB9012038BDD4F8840028B94A
:102350002320C4F88400204600F05CF800BF002071
:1023600000902A48006840F48040284908600846E8
:10237000006800F48040009000BF00BF244800685F
:1023800020F400002249086008460068A16808435C
:102390001F49086008460068206800F58050006802
:1023A00040F00101206800F58050016000F00EFD52
:1023B00005460DE000F00AFD401BB0F5FA7F07D995
:1023C0000420C4F88800E020C4F884000120BBE7A2
:1023D000206800F58050006800F001000028E9D175
:1023E0002046FEF715FF2046FEF7A3FE2046FEF727
:1023F00067FE002120466268FEF7F0FE0020C4F868
:1024000088001020C4F8840000209DE74438024072
:102410000438014010B586B00446142101A8FDF728
:102420009CFF4C49206888427ED100BF00BF00203D
:1024300000904948006840F000704749086008462D
:10244000006800F00070009000BF00BF00BF0020D7
:1024500000900846006840F0806008600846006808
:1024600000F08060009000BF00BF00BF002000901F
:102470000846006840F0006008600846006800F008
:102480000060009000BF00BF00BF00BF00200090B0
:102490000846006840F0040008600846006800F044
:1024A0000400009000BF00BF00BF0020009008465D
:1024B000006840F0010008600846006800F0010074
:1024C000009000BF00BF00BF0020009008460068D9
:1024D00040F0020008600846006800F0020000902A
:1024E00000BF00BF32200190022002900020039024
:1024F000032004900B20059001A9184800F054FB1C
:102500008620019002200290002003900320049076
:102510000B20059001A9124800F046FB4FF46050D3
:1025200001900220029000E011E0002003900320BF
:1025300004900B20059001A90A4800F035FB002209
:102540000A213D2001F092F93D2001F07BF906B00F
:1025500010BD0000008002403038024000080240F8
:10256000000002400004024070472DE9F05F04467D
:102570000F464FF00008C34647B9D4F8880040F032
:102580000100C4F888000120BDE8F09FD4F8840061
:10259000232801D00120F7E7E66D04F1480050F848
:1025A0002650E06EC0F1040942E0286800F4807013
:1025B00018B1E969A167A9696167286800F400702A
:1025C00008B9E06F40B3286800F4007010B1002132
:1025D00021666166D4F814A0286800F4807040B1C8
:1025E0002868C0F30D40A0F1040A296821674FF064
:1025F000010BA86828621FFA8AF304F18001081F02
:102600002A6A00F0D3F8206E401C2066606E00EB52
:102610000A0161660020286200BF761C042E00D3E8
:10262000361F00BF04F1480050F8265008F1010899
:10263000286800F0004020B9C84502D2BBF1000F65
:10264000B3D0E06E00EB0801E166E06E10B1204609
:10265000FFF70EF8E665BBF1010F05D1E06F3860BA
:102660000021E16700208FE701208DE72DE9F04789
:1026700005460E46174698462868046904F01C046F
:102680004FF4784000EAC62004434FF4F86000EAB3
:102690008710044324F0020444F001042868046114
:1026A00000F094FB81460BE000F090FBA0EB0900EA
:1026B000B0F5803F02D30120BDE8F08728680469A7
:1026C00004F001000028EFD12868406980B2C8F802
:1026D00000000020F0E72DE9F047064606F1180457
:1026E000A76AE56A4FF001082AE04FF001097F1E52
:1026F00004F1140050F8250020B9681C00F003050F
:102700004FF00009B9F1000F1AD005EB8501F06810
:1027100050F8310000F0004080B904F1140151F884
:10272000250000F0C1F9002104F1140040F8251043
:10273000681C00F00305A762E56201E04FF00008A5
:1027400017B1B8F1000FD0D10020BDE8F08700002C
:102750007CB504460D480DF0CFFF054685B105F167
:10276000200020600A4828614FF4C06120682B4691
:102770004122CDE90001002108460FF061FA04E092
:10278000012004490870002020607CBD14910208DB
:10279000B92301085C00002010B504460248006817
:1027A0000EF008FF10BD000060000020F0B50446E8
:1027B0000D4621462E460020A2F12000002707608A
:1027C000078143810F680FB9086001E037683860FE
:1027D0003060086803E007891F440781006800280B
:1027E000F9D1F0BD70B504460D460DB9012070BD9C
:1027F000D4F88400102805D129462046FEF7BCFEF7
:102800000020F4E70120F2E770B50646306805695C
:1028100025F01C0501F03EFA04461348844205D316
:102820001248844202D245F008051AE00F4884425B
:1028300005D30F48844202D245F00C0511E00C4844
:10284000844203D30B48844200D20AE00948844200
:1028500005D30948844202D245F0040501E045F061
:1028600010053068056170BD002D3101C00E1602E3
:102870000087930300E1F50580D1F00870B50446A8
:10288000D4F8840010285FD12320C4F884000121EB
:10289000A1652068C06B40F402702168C86320689D
:1028A000D0F80C01294908432168C1F80C012068BF
:1028B000D0F8100140F403102168C1F81001042180
:1028C000E1662046FEF7D4FE2068006840F008006C
:1028D00021680860206805680120FFF7F7FB206881
:1028E00005602068006840F00400216808602068E6
:1028F00005680120FFF7EAFB206805602046FEF727
:1029000049FC206800F58050806940F4005120683F
:1029100000F580508161206800F58050806940F0AA
:102920000201206800F580508161206800F5805028
:10293000C06907490843216801F58051C861232017
:10294000C4F88400002070BD0120FCE76000020094
:10295000C1A001002DE9F0410446D4F884002328E9
:1029600051D1C4F88400206800F58050C06927491F
:102970000840216801F58051C861206800F5805049
:10298000806920F40051206800F580508161206842
:1029900000F58050806920F00201206800F5805029
:1029A00081612068006820F00400216808602068C8
:1029B00007680120FFF78AFB206807602046FEF7C2
:1029C000E9FB2068006820F00800216808602068A2
:1029D00007680120FFF77AFB20680760002508E000
:1029E00004F1480050F82560706840F000407060C5
:1029F0006D1C042DF4D30021A1651020C4F88400BF
:102A00000020BDE8F0810120FBE700003E5FFEFFF3
:102A100070B504460D463DB9D4F8880040F0010079
:102A2000C4F88800012070BDD4F8840023282FD179
:102A3000696BE163012229462046FEF773FC38B139
:102A4000D4F8880040F00200C4F888000120EAE7CA
:102A5000BFF34F8F00BFA06A401CA062A06A042889
:102A600002D3A06A001FA06200BF206800F580505A
:102A7000406900F0040048B10421206800F580504E
:102A800041610021206800F5805041600020CAE7C4
:102A90000120C8E710B50446024800680EF08AFD20
:102AA00010BD00006400002010B5044620460FF061
:102AB000AFFB10BD70472DE9F04705460E4617469F
:102AC00098462868046904F01C044FF4784000EA32
:102AD000C62004434FF4F86000EA8710044344F032
:102AE000020444F001041FFA88F02968486128684C
:102AF000046100F06BF981460BE000F067F9A0EB90
:102B00000900B0F5803F02D30120BDE8F0872868B6
:102B1000046904F001000028EFD100BFF5E70000D0
:102B200010B50446B4F5806F06D0B4F5006F13D02D
:102B3000B4F5805F22D120E011480078401C104994
:102B4000087008460078052801D1002008700D485B
:102B500000681AF007FD11E00B48007810B107F08B
:102B600085FD01E007F08EFD0748007808B90120D7
:102B700000E000200449087000E000BF00BF10BD65
:102B800094000020180000200000002010B504462A
:102B900004480068204020B1024804602046FFF746
:102BA000BFFF10BD143C0140F8B502460B4600259E
:102BB000002400200021D6E0012606FA01F51E6857
:102BC00006EA0504AC4274D11E7906F00306012E14
:102BD00004D01E7906F00306022E13D190684F0030
:102BE0000326BE40B0434F00DE68BE4030439060D5
:102BF000506801268E40B0431E79C6F300168E4001
:102C0000304350601E7906F00306032E09D0D068C9
:102C10004F000326BE40B0434F009E68BE40304385
:102C2000D0601E7906F00306022E13D1CF0802F100
:102C3000200656F827004E07F70E0F26BE40B04379
:102C40004F07FF0E1E69BE403043CF0802F1200639
:102C500046F8270010684F000326BE40B0431E7997
:102C600006F003064F00BE40304310605E6806F475
:102C70004036002E76D000BF002600963C4E3668C7
:102C800046F480463A4F3E603E46366806F480463B
:102C9000009600BF00BF374E8F0856F827008E07FA
:102CA000370F0F26BE40B043334EB24202D100264A
:102CB00024E057E0314EB24201D101261EE0304EF1
:102CC000B24201D1022619E02E4EB24201D10326B2
:102CD00014E02D4EB24201D104260FE02B4EB24239
:102CE00001D105260AE02A4EB24201D1062605E0AE
:102CF000284EB24201D1072600E008268F073F0F79
:102D0000BE4030431B4E8F0846F82700224E3068E5
:102D1000A0435E6806F4801606B120431E4E306064
:102D2000361D3068A0435E6806F4001606B12043E5
:102D3000194E361D3060184E361F3068A0435E684D
:102D400006F4003606B12043134E361F3060361F9E
:102D50003068A0435E6806F4803606B120430E4E0C
:102D6000083E3060491C1029FFF426AFF8BD000072
:102D7000443802400838014000000240000402408C
:102D800000080240000C0240001002400014024003
:102D900000180240001C0240083C01400246136932
:102DA0000B400BB1012000E00020704710B54269D4
:102DB00021EA020302EA010443EA0443836110BDED
:102DC0000AB1816101E00B0483617047014800682A
:102DD0007047000098000020014691F83D007047C0
:102DE00070B504460CB9012070BD94F83D0028B9B7
:102DF000002084F83C00204600F0ECFB242084F8FE
:102E00003D002068006820F001002168086020680B
:102E1000006840F40040216808602068006820F4E1
:102E200000402168086000F03BFF05465C4960688F
:102E3000884206D85B48854201D2012007E0002085
:102E400005E05948854201D2012000E00020012818
:102E500000D1C9E75548B5FBF0F62068406820F07E
:102E60003F003043216848604D496068884201D87E
:102E7000701C07E04FF4967070434FF47A71B0FB0A
:102E8000F1F0401C2168096A21F03F0108432168E4
:102E9000086243496068884214D8681E6168490026
:102EA000B0FBF1F0401CC0F30B00042801D2042059
:102EB0003DE0681E61684900B0FBF1F0401CC0F3C2
:102EC0000B0034E0A06838B9681E616801EB41016D
:102ED000B0FBF1F0401C0AE0681E616801EBC10222
:102EE00002EB0111B0FBF1F0401C40F48040C0F354
:102EF0000B0008B901201AE0A06848B9681E616893
:102F000001EB4101B0FBF1F0401CC0F30B000CE001
:102F1000681E616801EBC10202EB0111B0FBF1F028
:102F2000401CC0F30B0040F4804040F40040216896
:102F3000C9694CF6FF72914308432168C861D4E91E
:102F4000070108432168096821F0C001084321688E
:102F50000860D4E9031008432168896848F2FF3209
:102F60009143084321688860D4E90501084321683A
:102F7000C96821F0FF0108432168C8602068006823
:102F800040F001002168086000202064202084F8BF
:102F90003D000020206384F83E0000BF24E70000CD
:102FA000A086010080841E0000093D0040420F0001
:102FB0002DE9F84F04460F4690461E46FFF706FFE0
:102FC00005464FF0000994F83D0020287ED11923D2
:102FD000012263492046009503F069FA10B10220EE
:102FE000BDE8F88F00BF94F83C00012801D1022011
:102FF000F6E7012084F83C0000BF2068006800F07C
:10300000010028B92068006840F0010021680860CC
:103010002068006820F4006021680860242084F89B
:103020003D00002020644F48E06200BF2068006837
:1030300040F4807021680860334600224FF001118F
:103040002046009503F033FA58B12068006800F478
:103050008070B0F5807F02D14FF4007020640320AF
:10306000BEE707F0FE0021680861FFF7AFFE0546E6
:1030700020684069C0F3400A20684069C0F3802B93
:1030800010E0FFF7A3FE401BB04200D816B9A02005
:1030900084F83D0020684069C0F3400A2068406918
:1030A000C0F3802B94F83D00A02805D0BAF1000FA2
:1030B00002D1BBF1000FE4D0202084F83D0020684D
:1030C0004069C0F3400028B3206800E045E0006894
:1030D00040F400702168086000BF00200090206864
:1030E0004069009020688069009000BF00BF1923EC
:1030F00001221B492046009503F0D9F908B10120AF
:103100006EE7202084F83D0000BF002084F83C00DA
:1031100000BF65E72068006840F40070216808601F
:103120006FF4806021684861192301220C49204610
:10313000009503F0BCF908B1012051E709F101093C
:10314000C145FFF473AF202084F83D0000BF00208C
:1031500084F83C0000BF012042E7022040E7000065
:10316000020010000000FFFF2DE9FC5F04460F463F
:1031700090469946DDE90CAB0E9EFFF727FE05460B
:1031800094F83D00202870D119230122B54920462A
:10319000009503F08CF910B10220BDE8FC9F00BF40
:1031A00094F83C00012801D10220F6E7012084F8C0
:1031B0003C0000BF2068006800F0010028B92068CA
:1031C000006840F00100216808602068006820F471
:1031D000006021680860222084F83D00402084F8C7
:1031E0003E0000202064C4F824A0A4F82AB0608D1A
:1031F00020859D48E0624B46424639462046CDE94F
:10320000006503F001F808B10120C6E7208D88B9F8
:1032100000BF00200190206840690190206880690B
:10322000019000BF00BF2068006840F40070216872
:10323000086040E0208D012818D12068006820F443
:1032400080602168086000BF00200190206840690C
:10325000019020688069019000BF00BF206800686D
:1032600040F400702168086025E0F8E0208D022815
:1032700016D12068006820F480602168086020680A
:10328000006840F400602168086000BF00200190E1
:1032900020684069019020688069019000BF0AE0C1
:1032A00000BF00200190206840690190206880697B
:1032B000019000BF00BFC3E0208D03287ED8208D81
:1032C000012815D12A463146204603F0CCF908B131
:1032D000012062E720680069616A0870606A401C2A
:1032E0006062208D401E2085608D401E6085A7E0B5
:1032F000208D02282AD1334600225C4920460095C1
:1033000003F0D5F808B1012047E72068006840F4D1
:1033100000702168086020680069616A0870606A4E
:10332000401C6062208D401E2085608D401E60859F
:1033300020680069616A0870606A401C6062208DC4
:10334000401E2085608D401E608579E03346002256
:1033500046492046009503F0AAF808B101201CE771
:103360002068006820F48060216808602068006997
:10337000616A0870606A401C6062208D401E208572
:10338000608D401E608533460022384920460095F6
:1033900003F08DF808B10120FFE62068006840F4D2
:1033A00000702168086020680069616A0870606ABE
:1033B000401C6062208D401E208500E010E0608D82
:1033C000401E608520680069616A0870606A401C60
:1033D0006062208D401E2085608D401E60852FE03C
:1033E0002A463146204603F03EF908B10120D4E6D2
:1033F00020680069616A0870606A401C6062208D04
:10340000401E2085608D401E608520684069C0F3A5
:103410008000A8B1208D032805D12068006820F421
:1034200080602168086020680069616A0870606ACD
:10343000401C6062208D401E2085608D401E60858E
:10344000208D00287FF438AF202084F83D00002034
:1034500084F83E0000BF84F83C0000BF9DE60220D7
:103460009BE60000020010000000FFFF04000100C6
:103470002DE9FC5F04460F4690469946DDE90CAB0A
:103480000E9EFFF7A3FC054694F83D0020287DD151
:10349000192301224D492046009503F008F810B188
:1034A0000220BDE8FC9F00BF94F83C00012801D138
:1034B0000220F6E7012084F83C0000BF2068006885
:1034C00000F0010028B92068006840F00100216880
:1034D00008602068006820F40060216808602120EE
:1034E00084F83D00402084F83E0000202064C4F8A9
:1034F00024A0A4F82AB0608D20853548E0624B46B0
:10350000424639462046CDE9006502F02DFF08B15C
:103510000120C6E731E02A463146204603F0E8F8AC
:1035200050B1206C042805D12068006840F4007078
:10353000216808600120B4E7606A007821680861AA
:10354000606A401C6062208D401E2085608D401E98
:10355000608520684069C0F3800070B1208D60B143
:10356000606A007821680861606A401C6062208D92
:10357000401E2085608D401E6085208D0028CAD1A8
:103580002A463146204602F05FFF00E01CE050B1C1
:10359000206C042805D12068006840F40070216880
:1035A000086001207DE72068006840F40070216811
:1035B0000860202084F83D00002084F83E0000BF11
:1035C00084F83C0000BF6CE702206AE702001000AC
:1035D0000000FFFF10B586B0044600BF0020009039
:1035E0002948006840F00200274908600846006842
:1035F00000F00200009000BF00BF00BF002000905C
:103600000846006840F0020008600846006800F0C4
:103610000200009000BF00BF00BF002000901A48C9
:103620001030006840F40010174910310860084657
:10363000006800F40010009000BF00BF88150190E2
:103640001220029000200390022004900420059094
:1036500001A90E48FFF7A8FA4FF40070019004206A
:10366000059001A90948FFF79FFA0748103800683C
:1036700040F400100449103908600846006820F43E
:103680000010086006B010BD30380240000402404F
:1036900070B504460CB9012070BD4CF6CC402168D1
:1036A000086045F2555021680860D4E90010486070
:1036B0002168A0688860FFF789FB05460BE0FFF7EB
:1036C00085FB401B312806D92068C06800F0030044
:1036D00008B10320E0E72068C06800F0030000287C
:1036E000EDD14AF6AA20216808600020D4E70146FF
:1036F0004AF6AA200A681060002070470348006854
:10370000034909780844014908607047980000207F
:10371000A000002010B50D48006840F400700B496F
:1037200008600846006840F4806008600846006849
:1037300040F480700860032000F0D6F80F2000F0FD
:1037400007F800F055F8002010BD0000003C0240D2
:10375000F0B587B004460026002700BF0020009087
:103760001E48006840F001001C49086008460068D7
:1037700000F00100009000BF00BF01A902A800F006
:1037800067FA00F09DFA46001548B6FBF0F0471EB8
:1037900014481549086040F2E7311348C16047609A
:1037A000002101618160816101F0EAFE054695B961
:1037B0000D4801F095FF05466DB9192000F042F85B
:1037C000102C07D200222146192000F04FF807489C
:1037D000046000E00125284607B0F0BD44380240EF
:1037E00040420F0000000140D80900209C0000204A
:1037F00008B500BF002000901148006840F48040E8
:103800000F4908600846006800F48040009000BF3F
:1038100000BF00BF00200090081F006840F08050EB
:10382000091F08600846006800F08050009000BF43
:1038300000BF00220F21901E00F018F808BD000004
:10384000443802400146084600280DDB00BF00BF97
:1038500000F01F0301229A4043099B0003F1E0237B
:10386000C3F8002100BF00BF00BF70472DE9F05F23
:1038700080460D461646002706F03CFA07463946B4
:103880002A46334601F00700C0F1070ABAF1040FD7
:1038900002D94FF0040A01E0C0F1070AD14600F155
:1038A000040ABAF1070F02D24FF0000A01E0A0F1BA
:1038B000030AD4464FF0010A0AFA09FAAAF1010AEA
:1038C0000AEA020A0AFA0CFA4FF0010B0BFA0CFB97
:1038D000ABF1010B0BEA030B4AEA0B04214640460D
:1038E00006F010FABDE8F09F00BF00F00702064B9B
:1038F00019684FF6FF031940044B0B4343EA0221BA
:10390000014B196000BF70470CED00E00000FA05A4
:1039100008B501200349086203480068009000BF11
:1039200008BD000000000E4200700040F8B50446DB
:1039300000250026207800F0010020B9207800F052
:10394000040004282FD100205B498866FFF73EFA67
:10395000054606E0FFF73AFA401B022801D903208A
:10396000F8BD56480068C0F3C0600028F2D1606816
:103970008101207A41EA00705049843108600120B9
:103980004D498866FFF722FA054606E0FFF71EFA62
:10399000401B022801D90320E2E748480068C0F331
:1039A000C0600028F2D0207800F0020002287DD10B
:1039B00000BF0020009041484030006840F0805037
:1039C0003E49403108600846006800F08050009091
:1039D00000BF00BF3A48006840F480703849086072
:1039E000FFF7F4F9054606E0FFF7F0F9401B02285F
:1039F00001D90320B4E73248006800F48070002841
:103A0000F2D02E487030006800F440764EB3A089A2
:103A100000F44070B04224D028487030006820F490
:103A20004076012027490860002008602348703054
:103A30000660006800F0010098B1FFF7C7F905467D
:103A400008E0FFF7C3F9401B41F28831884201D9F1
:103A5000032085E7194870300068C0F34000002853
:103A6000EFD000BFA08900F44070B0F5407F0CD1CA
:103A700012480830006820F4F810134AE168114039
:103A800008430E490831086007E00C480830006818
:103A900020F4F810094908310860084870300068BF
:103AA000A189C1F30B010843044900E002E0703131
:103AB000086000BF002053E7000047420038024082
:103AC00000700040400E4742FFFCFF0F70B50446F7
:103AD0000D460CB9012070BD5848006800F0070081
:103AE000A84209D255490D700846006800F0070049
:103AF000A84201D00120EEE7207800F00200022861
:103B00001DD1207800F00400042805D14C4800683D
:103B100040F4E0504A490860207800F00800082886
:103B200005D14748006840F4604045490860444872
:103B3000006820F0F000A16808434149086020783F
:103B400000F00100A8B36068012807D13C4808389C
:103B50000068C0F34040B8B90120BCE760680228A3
:103B600002D06068032807D1354808380068C0F3E0
:103B7000406048B90120AEE7314808380068C0F31A
:103B8000400008B90120A6E72D48006820F0030096
:103B9000616808432A490860FFF718F9064609E0FA
:103BA000FFF714F9801B41F28831884202D90320C3
:103BB00091E707E02248006800F00C006168B0EB74
:103BC000810FEDD11D48006800F00700A84209D917
:103BD0001A490D700846006800F00700A84201D09D
:103BE000012078E7207800F00400042807D1144869
:103BF000006820F4E050E16808431149086020782B
:103C000000F00800082808D10D48006820F4604042
:103C1000216940EAC1000A49086000F061F80849DA
:103C20000968C1F30311074A515CC840064908609E
:103C300006480068FFF78CFD00204CE7003C02407E
:103C4000083802401CC50208A40000209C00002087
:103C50000F2202600D4A126802F0030242600B4A12
:103C6000126802F0F0028260084A126802F4E05220
:103C7000C260064A126802F46042D2080261044A35
:103C8000126802F007020A6070470000083802401C
:103C9000003C02400148006870470000A40000207A
:103CA00000B5FFF7F7FF04490968C1F38221034A11
:103CB000515CC84000BD0000083802402CC5020815
:103CC00000B5FFF7E7FF04490968C1F34231034A31
:103CD000515CC84000BD0000083802402CC50208F5
:103CE0002DE9F047002400250026A146254800685C
:103CF00000F00C0020B1042805D008283AD105E0D6
:103D0000DFF8849039E0DFF8849036E01D48001F2A
:103D1000006800F03F041B48001F006800F48000AA
:103D200078B11A481749091F0968C1F38811A0FB27
:103D300001700146224600233846FCF7A3FA0546E7
:103D40000EE011480F49091F0968C1F38811A0FB53
:103D500001700146224600233846FCF793FA0546D7
:103D60000848001F0068C0F30140401C4600B5FB36
:103D7000F6F902E0DFF8109000BF00BF4846BDE84A
:103D8000F0870000083802400024F40040787D01EC
:103D9000F8B504460CB90120F8BD207800F0010008
:103DA000002874D0F948006800F00C0004280DD0F9
:103DB000F648006800F00C00082813D1F348001FF3
:103DC000006800F48000B0F5800F0BD1EF48083890
:103DD0000068C0F34040002859D06068002856D1E0
:103DE0000120D9E700BF6068B0F5803F08D1E748FF
:103DF0000838006840F48030E449083908601EE063
:103E00006068B0F5A02F0DD1E0480838006840F494
:103E10008020DE49083908600846006840F4803098
:103E200008600CE0D9480838006820F48030D74991
:103E3000083908600846006820F48020086000BF48
:103E4000606890B1FEF7C2FF054606E0FEF7BEFFD0
:103E5000401B642801D903209EE7CC48083800683D
:103E6000C0F340400028F1D011E0FEF7AFFF054657
:103E700006E0FEF7ABFF401B642801D903208BE767
:103E8000C24808380068C0F340400028F1D12078CB
:103E900000F0020002285FD1BC48006800F00C006E
:103EA00058B1BA48006800F00C0008281CD1B74887
:103EB000001F006800F48000B0B9B44808380068FA
:103EC000C0F3400020B1E068012801D0012063E781
:103ED000AE480838006820F0F800216940EAC100C7
:103EE000AA490839086037E0E06800B30120A84912
:103EF0000860FEF76BFF054606E0FEF767FF401B14
:103F0000022801D9032047E7A04808380068C0F319
:103F100040000028F1D09D480838006820F0F800E3
:103F2000216940EAC10099490839086014E000207D
:103F300097490860FEF74AFF054606E0FEF746FF90
:103F4000401B022801D9032026E790480838006862
:103F5000C0F340000028F1D1207800F008000828C4
:103F60002CD16069A8B101208A490860FEF72EFFB4
:103F7000054606E0FEF72AFF401B022801D9032070
:103F80000AE782486C300068C0F340000028F1D096
:103F900014E000207F490860FEF718FF054606E0A0
:103FA000FEF714FF401B022801D90320F4E67748EE
:103FB0006C300068C0F340000028F1D1207800F098
:103FC0000400042870D1002770483830006800F0E1
:103FD000805090B900BF002000906C4838300068D5
:103FE00040F080506949383108600846006800F0A8
:103FF0008050009000BF00BF01276748006800F4B0
:104000008070B0B96448006840F48070624908600C
:10401000FEF7DCFE054606E0FEF7D8FE401B022850
:1040200001D90320B8E65C48006800F480700028DD
:10403000F2D000BFA068012808D154486830006859
:1040400040F001005149683108601DE0A068052872
:104050000DD14E486830006840F004004B4968318B
:1040600008600846006840F0010008600CE047481E
:104070006830006820F00100444968310860084653
:10408000006820F00400086000BFA068A8B1FEF737
:104090009DFE054609E0FEF799FE401B41F288317E
:1040A000884202D9032077E626E038486830006865
:1040B000C0F340000028EED013E0FEF787FE05466F
:1040C00008E0FEF783FE401B41F28831884201D9A7
:1040D000032061E62D4868300068C0F340000028E6
:1040E000EFD1012F07D129483830006820F08050E7
:1040F00026493831086000BFA069002845D0234810
:10410000006800F00C0008285DD0A069022845D1A5
:1041100000201F490866FEF759FE054606E0FEF737
:1041200055FE401B022801D9032035E61748083800
:104130000068C0F340600028F1D1D4E907010843CA
:10414000616A40EA81110122A06AC2EB500041EA93
:1041500000412C20005D41EA00600C49091F086005
:1041600001200B490866FEF731FE054606E0FEF722
:104170002DFE401B022801D903200DE60348083814
:104180000068C0F340600028F1D049E008380240E0
:1041900000004742800E4742007000400020214945
:1041A0000866FEF713FE054606E0FEF70FFE401B0D
:1041B000022801D90320EFE51B480068C0F34060E6
:1041C0000028F2D12CE0A069012800D1E4E51648CE
:1041D000001D0668A069012820D006F48001E0696E
:1041E00081421BD106F03F01206A814216D147F679
:1041F000C0703040616AB0EB811F0FD106F44031CE
:104200000122A06AC2EB5000B1EB004F06D106F0CC
:1042100070612C20005DB1EB006F01D00120BBE587
:104220000020B9E500004742003802400246002362
:10423000106800F1500303EB81031868704710B554
:104240000023046804F1500303EB81031A6010BDDE
:1042500018B503464E48006840094FF47A74B0FB25
:10426000F4F06043009000BF187F012801D10220C4
:1042700018BD0120187700BF0220587700BFCA2060
:104280001C68606253201C68606200BF1868806808
:1042900000F48060C0B100BF0098401E00900098FC
:1042A00060B900BFFF201C68606200BF0320587720
:1042B00000BF0020187700BF0320D9E71868C06846
:1042C000C0F380000028E7D11868806820F480607F
:1042D0001C68A0601868C06800F0800060F49060FE
:1042E0001C68E0602A48006840094FF47A74B0FB0B
:1042F000F4F06043009000BF0098401E00900098CA
:1043000060B900BFFF201C68606200BF03205877BF
:1043100000BF0020187700BF0320A9E71868C06815
:10432000C0F380000028E7D01868806820F00700FC
:104330001C68A0601868806810431C68A06018683A
:1043400041611448006840F48000124C206011481C
:104350000830006840F480000E4C08342060186873
:10436000806840F480401C68A0601868806840F451
:1043700080601C68A06000BFFF201C68606200BFF6
:104380000120587700BF0020187700BF00BF6FE7FB
:10439000A4000020003C01407047000010B5044616
:1043A0004FF480000A4908602068C068C0F380208C
:1043B00050B12068C06800F0800060F4906021680F
:1043C000C8602046FFF7E8FF0120607710BD0000BD
:1043D000143C014070B505460B461646002428687B
:1043E00040680E4900EA0104200CD870C4F3042090
:1043F000587004F03F009870C4F3423018705EB9F2
:10440000D87803F0E3FED870587803F0DFFE5870D8
:10441000987803F0DBFE9870002070BD3FFFFF002E
:1044200070B504460B46164600252068806A586021
:1044300020680069C0F30E009860206800680E498B
:1044400000EA0105C5F305401870C5F30620587051
:1044500005F07F009870A80DD8705EB9187803F049
:10446000B5FE1870587803F0B1FE5870987803F0D4
:10447000ADFE9870002070BD7F7F7F0070B5044650
:1044800001250CB9012070BD607F20B90020207784
:10449000204600F04DF8022060772068C068C0F325
:1044A000001000283CD100BFCA2021684862532078
:1044B0002168486200BF204603F0EAFE0546EDB9D8
:1044C000206880681949084021688860216960680F
:1044D0000843616908432168896808432168886046
:1044E0002168E068086120680169208941EA00408C
:1044F00021680861204603F0F0FE05465DB920689A
:10450000006C20F48020216808642068006CA16998
:1045100008432168086400BFFF202168486200E06A
:1045200000250DB9012060772846ACE7BFFF8FFF5B
:104530001FB50446002000900190029003900D49A1
:104540002068884214D102200090C0010390684680
:10455000FFF7ECF908B1FDF7F2F801200649086011
:10456000002205210320FFF781F90320FFF76AF9F4
:104570001FBD0000002800403C0E47422DE9F041DD
:1045800005460C4617464FF0000800BF287F01285B
:1045900002D10220BDE8F0810120287700BF02206F
:1045A00068774FB9607800F01000102804D1607867
:1045B00000F0EF000A30607087B9E07803F011FE78
:1045C0000304607803F00DFE43EA0023A07803F0B3
:1045D00008FE0343207843EA403809E0E07800040D
:1045E000617840EA0120A1780843217840EA413807
:1045F00000BFCA202968486253202968486200BF6A
:10460000284603F045FE064646B90B4808EA000076
:1046100029684860284603F060FE06460EB901206E
:10462000687700BFFF202968486200BF00BF0020F4
:10463000287700BF3046ADE73FFFFF002DE9F0418E
:1046400004460D4617464FF0000800BF207F0128A2
:1046500002D10220BDE8F0810120207700BF0220B6
:104660006077CFB92068806800F0400000B102E0B8
:104670000020E87000BF287803F0B3FD03046878D9
:1046800003F0AFFD43EA0023A87803F0AAFD03433B
:10469000E87843EA805812E02068806800F0400023
:1046A00000B102E00020E87000BF287800046978BB
:1046B00040EA0120A9780843E97840EA815800BF20
:1046C000CA202168486253202168486200BF204602
:1046D00003F0DEFD0646B6B9124808EA000021687C
:1046E00008602068806820F4802021688860D5E90F
:1046F00003010843216889680843216888602046CF
:1047000003F0EBFD06460EB90120607700BFFF20E5
:104710002168486200BF00BF0020207700BF3046FC
:1047200098E700007F7F7F0070B5044600250B48A6
:104730002168C860FEF74AFB054607E0FEF746FB26
:10474000401BB0F57A7F01D9032070BD2068C06896
:1047500000F020000028F1D00020F6E75F7F010084
:10476000F0B589B004460E460027032084F83400D3
:10477000606C032820D0B6F5805F04D1A06B40F0B8
:104780008050A0631CE0B6F5006F07D1204604F00E
:10479000B3FC0546A06B2843A06311E03EB9204658
:1047A00004F076FC0546A06B2843A06308E0A06BEC
:1047B00040F00060A06303E0A06B40F08050A06375
:1047C000A06B38B1174821688863012084F8340051
:1047D000012713E060680390A0680490E0680590EA
:1047E000069660690790A069089006A807C88DE83A
:1047F0000700206803A90EC903F0ADFE4FF4007155
:10480000206803F01FFF054635B10648216888631C
:10481000A06B2843A0630127012084F834003846A8
:1048200009B0F0BDFF05400010B50246506E800F84
:104830000870506EC0F383604870506EC0F3016022
:104840008870506E000CC870B2F86400000A0871DD
:1048500092F864004871906E000DC880906EC0F3AD
:10486000034008726820805AC0F3C0304872682044
:10487000805AC0F3803088726820805AC0F340307C
:10488000C8726820805AC0F3003008730020487353
:10489000506C002836D16820805A8005030DD06EF8
:1048A00043EA90700861D06EC0F3C2600875D06EA4
:1048B000C0F302604875D06EC0F342508875D06E68
:1048C000C0F38240C875D06EC0F3C2300876086964
:1048D000401C50650B7E506D03F007039B1C0124A8
:1048E0009C4060435065087A00F00F030120984017
:1048F0009065D2E915035B0A5843D0654FF4007305
:10490000136621E0506C012813D16820805C80067A
:10491000830AD06E43EA104008610869401C830294
:104920005365536DD3654FF400739365936D1366B0
:104930000AE02E4813689863906B40F080509063B3
:10494000012082F8340010BD6C20805AC0F3803002
:1049500001F8190F6C20805AC0F3C61048706C2003
:10496000805C00F07F008870106FC00FC870106FFF
:10497000C0F341700871106FC0F382604871106F0E
:10498000C0F383508871106FC0F34050C87100208D
:104990000872106FC0F3004048727020805AC0F354
:1049A000C03088727020805AC0F38030C872702086
:1049B000805AC0F3403008737020805AC0F3003032
:1049C00048737020805AC0F3812088737020805A09
:1049D000C0F30120C8737020805CC0F346000874E7
:1049E0000120487419390020ADE70000FF054000A0
:1049F0000246506C0860906C4860D06C8860106D06
:104A0000C860506D0861906D4861D06D8861106E0E
:104A1000C86100207047F8B5044600200090694640
:104A2000204604F01DFB054615B1A06B2843A0638A
:104A30000098C0F343263046F8BD10B504460CB9C3
:104A4000012010BD94F8340020B9002020772046C2
:104A500000F06AF8032084F83400204600F00CF8D7
:104A600008B10120EDE70020A0632063012084F855
:104A700034000020E5E7000070B58AB0044600204D
:104A8000049005900690079008907620099007A85A
:104A900007C88DE80700206804A90EC903F05BFD74
:104AA000064616B101200AB070BD00201C490860FE
:104AB000206803F06AFD01201949A039C1F8A0005F
:104AC0000220FDF703FB204604F064FA05463DB1E1
:104AD000012084F83400A06B2843A0630120E2E7A2
:104AE000204604F0D5F905463DB1012084F8340094
:104AF000A06B2843A0630120D5E74FF40071206824
:104B000003F0A0FD05464DB1064821688863A06BFF
:104B10002843A063012084F83400C4E70020C2E7E2
:104B2000A0802542FF054000704700002DE9FF4F9F
:104B300089B004468B469946DDF858A0FEF746F941
:104B400002900B9800905D46BBF1000F07D1A06B5F
:104B500040F00060A06301200DB0BDE8F08F94F834
:104B6000340001287ED10020A063009800EB0901E9
:104B7000E06D814205D9A06B40F00070A063012078
:104B8000EAE7032084F8340000202168C862606CE2
:104B9000012802D00098400200904FF0FF300390AF
:104BA0004FEA4920049090200590022006900020B2
:104BB00007900120089003A9206803F0A7FCB9F131
:104BC000010F07D9022020632068009903F0A2FD9D
:104BD000804606E0012020632068009903F0B6FDBE
:104BE0008046B8F1000F0DD0784821688863A06B2B
:104BF00040EA0800A063012084F83400002020630C
:104C00000120A9E7049E3AE02068406B00F40040D0
:104C1000E0B1DEB10020019015E0206803F0BAFC9D
:104C200007462F706D1C761E380A28706D1C761E84
:104C3000380C28706D1C761E380E28706D1C761E80
:104C40000198401C019001980828E6D3FEF7BEF8B1
:104C50000299401A504502D2BAF1000F0FD15B48B9
:104C6000216800E0ABE08863A06B40F00040A063E7
:104C7000012084F834000020206303206CE72068C2
:104C8000406B40F22A3108400028BDD02068406BBC
:104C900000F48070D0B1B9F1010F17D9606C03280E
:104CA00014D0206803F012FE8046B8F1000F0DD03A
:104CB000464821688863A06B40EA0800A063012091
:104CC00084F8340000202063012045E72068406B11
:104CD00000F0080020B92068406B00F4007068B153
:104CE0003A4821688863A06B40F00800A063012067
:104CF00084F834000020206301202DE72068406BF9
:104D000000F0020068B1314821688863A06B40F070
:104D10000200A063012084F83400002020630120F9
:104D20001AE72068406B00F0200068B1274821682E
:104D30008863A06B40F02000A063012084F8340059
:104D400000202063012007E729E0206803F022FC0F
:104D500007462F706D1C761E380A28706D1C761E53
:104D6000380C28706D1C761E380E28706D1C761E4F
:104D7000FEF72CF80299401A504502D2BAF1000F02
:104D80000DD1124821688863A06B40F00040A063F9
:104D9000012084F83400002020630120DCE6206834
:104DA000406B00F4001008B1002ECED140F23A5012
:104DB00021688863012084F834000020CCE6A06BD1
:104DC00040F00050A0630120C6E60000FF0540004F
:104DD0002DE9F04F89B00446894693469846FDF781
:104DE000F5FF0290DA464D46B9F1000F07D1A06BEE
:104DF00040F00060A063012009B0BDE8F08F94F896
:104E0000340001287ED10020A0630AEB0801E06D88
:104E1000814205D9A06B40F00070A0630120EBE750
:104E2000032084F8340000202168C862606C0128E7
:104E300001D04FEA4A2A4FF0FF3003904FEA482052
:104E40000490902005900020069007900120089083
:104E500003A9206803F05AFBB8F1010F07D92020FD
:104E600020635146206803F04FFD064606E01020FF
:104E700020635146206803F063FD064666B1624830
:104E800021688863A06B3043A063012084F834005C
:104E9000002020630120AFE7049F43E02068406BBF
:104EA00000F4804030B32FB3002001901FE0287839
:104EB00000906D1C7F1E2878009941EA0020009028
:104EC0006D1C7F1E2878009941EA004000906D1CFF
:104ED0007F1E2878009941EA006000906D1C7F1EBB
:104EE0006946206803F06EFB0198401C0190019810
:104EF0000828DCD3FDF76AFF0299411A1298814213
:104F000003D200E079E0129860B93F4821688863D5
:104F1000A06B3043A063012084F83400002020639C
:104F2000032069E72068406B40F21A3108400028EE
:104F3000B4D02068406B00F48070B8B1B8F1010FB4
:104F400014D9606C032811D0206803F0BFFC06461A
:104F500066B12D4821688863A06B3043A0630120AF
:104F600084F8340000202063012045E72068406B6E
:104F700000F0080020B92068406B00F4007068B1B0
:104F8000214821688863A06B40F00800A0630120DD
:104F900084F834000020206301202DE72068406B56
:104FA00000F0020068B1184821688863A06B40F0E7
:104FB0000200A063012084F8340000202063012057
:104FC0001AE72068406B00F0100068B10E482168B5
:104FD0008863A06B40F01000A063012084F83400C7
:104FE00000202063012007E740F23A5021688863DF
:104FF000012084F834000020FEE6A06B40F0005051
:10500000A0630120F8E60000FF05400070470000A3
:10501000F8B504462068466820688568C5F38010A6
:1050200048B905F0010030B1C6F3801018B1204630
:10503000216C8847F8BDC5F3400030B1C6F3C010FD
:1050400018B12046616C8847F4E7C5F3401030B9C9
:10505000C5F3801018B9C5F3002000287CD0C6F332
:10506000401000287DD0C5F38010F0B194F85100B5
:1050700003280ED0606D40F00400606500BF002082
:1050800000902068C068009020688068009000BF91
:105090000BE000BF002000902068C06800902068EE
:1050A0008068009000BF00BFC4E7C5F3401088B11E
:1050B000606D40F00100606500BF00200090206836
:1050C000806800902068006820F040002168086037
:1050D00000BF00BFC5F3002058B1606D40F008006C
:1050E000606500BF0020009020688068009000BFCD
:1050F00000BF606D78B32068406820F0E000216850
:105100004860012084F8510006F00200022802D015
:1051100006F0010008B32068406820F00300216811
:105120004860E06C50B11048E16C0865E06CFCF739
:105130000BFF18B1606D40F040006065A06C50B18D
:105140000948A16C0865A06CFCF7FEFE18B1606D03
:1051500040F04000606503E003E02046FFF756FFA3
:1051600068E700BF66E700009D93000810B504469D
:105170000CB9012010BD606A38B96068B0F5827F53
:1051800000D105E00021E16102E0002121616161BF
:105190000021A16294F8510028B9002084F8500041
:1051A000204600F047F8022084F85100206800688B
:1051B00020F0400021680860A08800F482702189F6
:1051C00001F404410843A18901F400610843217CF2
:1051D00001F002010843217D01F001010843218B08
:1051E00001F400710843217F01F0380108432021B8
:1051F000095D01F080010843218D01F4005108434D
:10520000216808600421A06901EA104094F8241084
:1052100001F010010843216848602068C06920F44B
:1052200000602168C86100206065012084F8510099
:1052300000209FE710B586B00446142101A8FBF7B3
:105240008CF82E492068884255D100BF002000907C
:105250002B48006840F480402949086008460068EF
:1052600000F48040009000BF00BF00BF002000900D
:1052700023481038006840F00400214910390860C4
:105280000846006800F00400009000BF00BF00BFA7
:10529000002000900846006840F0020008600846C0
:1052A000006800F00200009000BF00BF08200190DD
:1052B0000220029000200390032004900520059016
:1052C00001A91048FDF770FC4FF4806001900220A6
:1052D000029000200390032004900520059001A96E
:1052E0000948FDF761FC002205212420FEF7BEFAE3
:1052F0002420FEF7A7FA06B010BD000000380040D9
:105300004038024000080240000402402DE9F84FF6
:105310000446884616461D464FF0000A00BF94F822
:105320005000012802D10220BDE8F88F012084F846
:10533000500000BFFDF74AFD0746B14694F8510002
:10534000012802D04FF0020AB7E0B8F1000F00D0F8
:1053500016B94FF0010AB0E0032084F85100002094
:105360006065C4F83080A686E686A063A087E087E3
:1053700060642064A068B0F5004F0BD1206800681D
:1053800020F04000216808602068006840F48040F8
:10539000216808602068006800F04000402805D0BF
:1053A0002068006840F0400021680860E068B0F5BF
:1053B000006F32D1606810B1B9F1010F09D1206BD3
:1053C00000882168C860206B801C2063E08E401E2E
:1053D000E0861EE02068806800F0020002280AD102
:1053E000206B00882168C860206B801C2063E08EE1
:1053F000401EE0860DE0FDF7E9FCC01BA84201D38A
:10540000681C00B92DB94FF0030A012084F851003F
:1054100053E0E08E0028DDD131E0606810B1B9F1D1
:10542000010F09D1206B007821680873206B401CA4
:105430002063E08E401EE0861EE02068806800F059
:10544000020002280AD1206B007821680873206BC3
:10545000401C2063E08E401EE0860DE0FDF7B6FCA8
:10546000C01BA84201D3681C00B92DB94FF0030A34
:10547000012084F8510020E0E08E0028DDD13A467A
:105480002946204603F094FF08B120206065A068FB
:1054900050B900BF002000902068C06800902068CC
:1054A0008068009000BF00BF606D10B14FF0010A2E
:1054B00002E0012084F8510000BF00BF002084F802
:1054C000500000BF50462FE77047704730B5024686
:1054D0000B4600BF92F83C00012801D1022030BDEC
:1054E000012082F83C0000BF022082F83D001068D5
:1054F00044681068816824F07004186804431068D8
:105500004460184D1068A8421BD01068B0F1804F5D
:1055100017D0154D1068A84213D0144D1068A8423A
:105520000FD0134D1068A8420BD0124D1068A8423E
:1055300007D0114D1068A84203D0104D1068A84242
:1055400005D121F080015868014310688160012075
:1055500082F83D0000BF002082F83C0000BF00BF81
:10556000BDE70000000001400004004000080040CA
:10557000000C0040000401400040014000180040C1
:1055800010B504460CB9012010BD94F83D0028B9AF
:10559000002084F83C00204600F026F8022084F821
:1055A0003D00211D206804F049F8012084F84600E0
:1055B00000BF84F83E0001213F20015540200155E5
:1055C0004120015500BF00BF012084F84200432064
:1055D0000155442001554520015500BF012084F8A4
:1055E0003D000020D0E7000008B50168B1F1804F10
:1055F0000FD100BF002100911049096841F001015D
:105600000E4A11601146096801F00101009100BFC6
:1056100013E00B4A016891420FD100BF00210091B5
:105620000649096841F00201044A116011460968FF
:1056300001F00201009100BF00BF08BD40380240E8
:1056400000040040014691F83D00012801D00120EE
:105650007047022081F83D001A4B086898421BD021
:105660000868B0F1804F17D0174B0868984213D0E4
:10567000164B086898420FD0154B086898420BD01B
:10568000144B0868984207D0134B0868984203D01F
:10569000124B086898420CD10868806800F0070235
:1056A000062A0CD00868006840F001000B681860FA
:1056B00005E00868006840F001000B6818600020F1
:1056C000C6E7000000000140000400400008004060
:1056D000000C004000040140004001400018004060
:1056E000014691F83D00012801D0012070470220B9
:1056F00081F83D000868C06840F001000B68D86080
:105700001A4B086898421BD00868B0F1804F17D038
:10571000174B0868984213D0164B086898420FD070
:10572000154B086898420BD0144B0868984207D074
:10573000134B0868984203D0124B086898420CD16A
:105740000868806800F00702062A0CD00868006824
:1057500040F001000B68186005E00868006840F040
:1057600001000B6818600020C0E700000000014045
:105770000004004000080040000C0040000401400C
:105780000040014000180040014600BF0868006A60
:1057900041F21112104050B90868006A921010408E
:1057A00028B90868006820F001000A68106000BF8E
:1057B000012081F83D00002070472DE9F0410446AA
:1057C0000D46002700BF94F83C00012802D10220BA
:1057D000BDE8F081012084F83C0000BF022084F87D
:1057E0003D002068866826F0770626F47F4620680C
:1057F00086602868502833D00CDC202850D004DC88
:1058000000284BD0102851D149E0302849D04028F9
:105810004CD139E060282DD0702807D0B0F5805FDA
:1058200003D0B0F5005F41D10DE041E0D5E90213AE
:105830006A68206803F076FF2068866846F077067D
:105840002068866034E0D5E902136A68206803F0B6
:1058500069FF2068806840F480402168886027E004
:10586000EA686968206803F071FF5021206803F03E
:1058700064FF1DE0EA686968206803F07AFF602130
:10588000206803F05AFF13E0EA686968206803F0B3
:105890005DFF4021206803F050FF09E000BF00BF1A
:1058A00000BF2968206803F048FF01E0012700BF1E
:1058B00000BF012084F83D0000BF002084F83C00B8
:1058C00000BF384684E7704770B504462068C56855
:1058D0002068066906F00200022819D105F00200CE
:1058E000022815D1401F2168086101202077206817
:1058F000806900F0030018B12046FFF7E4FF05E0DF
:10590000204600F097F8204600F095F80020207718
:1059100006F00400042819D105F00400042815D16C
:10592000C04321680861022020772068806900F464
:10593000407018B12046FFF7C6FF05E0204600F092
:1059400079F8204600F077F80020207706F008006C
:10595000082819D105F00800082815D1C04321688E
:105960000861042020772068C06900F0030018B1A6
:105970002046FFF7A8FF05E0204600F05BF8204630
:1059800000F059F80020207706F01000102819D1F7
:1059900005F01000102815D1C043216808610820C7
:1059A00020772068C06900F4407018B12046FFF7E6
:1059B0008AFF05E0204600F03DF8204600F03BF865
:1059C0000020207706F0010048B105F0010030B159
:1059D0006FF0010021680861204600F02DF806F004
:1059E0008000802809D105F08000802805D1C043BF
:1059F000216808612046FFF767FD06F04000402857
:105A000009D105F04000402805D1C0432168086154
:105A1000204600F01DF806F02000202809D105F0EE
:105A20002000202805D1C043216808612046FFF7E7
:105A30004CFD70BD7047704710B50446034920689F
:105A4000884201D1FDF75AFE10BD00000000014060
:105A500070477047704701460022002391F84120AB
:105A600091F8423042EA0300704700002DE9F84FF8
:105A70000446206805682068C668206847694FF0BA
:105A80000009CA4605F00F09B9F1000F0AD105F067
:105A9000200038B106F0200020B1204603F0D8FEE7
:105AA000BDE8F88FB9F1000F7CD007F0010018B9FC
:105AB00006F49070002875D005F0010030B106F4AE
:105AC000807018B1606C40F00100606405F0040063
:105AD00030B107F0010018B1606C40F00200606462
